:020000040800F2
:100000000050002035250008152000081B2000089E
:1000100021200008272000082D20000800000000F3
:100020000000000000000000000000003320000875
:100030003F200008000000004B2000085720000867
:100040007D2500087D2500087D2500087D25000808
:100050007D2500087D2500087D2500087D250008F8
:100060007D2500087D2500087D2500087D250008E8
:100070007D2500087D2500087D2500087D250008D8
:100080007D2500087D2500087D2500087D250008C8
:100090007D2500087D2500087D2500087D250008B8
:1000A0007D2500087D2500087D2500087D250008A8
:1000B00065200008792000087D2500087D250008BE
:1000C0007D2500087D2500087D2500087D25000888
:1000D0007D2500087D2500087D2500087D25000878
:1000E0007D2500087D2500087D2500080000000012
:1000F0000000000000000000000000000000000000
:0C01000000000000000000005FF808F1A3
:10010C0010B5054C237833B9044B13B10448AFF345
:10011C0000800123237010BD9C0000200000000013
:10012C002C5F000808B5034B1BB103490348AFF320
:10013C00008008BD00000000A00000202C5F00081B
:10014C00034613F8012B002AFBD1181A013870470B
:10015C0080B588B000AF07F1100300221A605A6016
:10016C009A60DA603C4B9B693B4A43F01003936105
:10017C00394B9B6903F01003FB60FB68364B9B69A2
:10018C00354A43F020039361334B9B6903F0200302
:10019C00BB60BB68304B9B692F4A43F004039361EF
:1001AC002D4B9B6903F004037B607B682A4B9B6996
:1001BC00294A43F008039361274B9B6903F008031A
:1001CC003B603B68002245F20331244802F001FDFC
:1001DC0000224FF41061224802F0FBFC48F2FE03AF
:1001EC003B6100237B610223BB6107F110031946BD
:1001FC001B4802F053FB41F203333B6101237B614B
:10020C000023BB610223FB6107F11003194613485D
:10021C0002F044FB4FF480433B6101237B610223DA
:10022C00BB610223FB6107F1100319460B4802F076
:10023C0035FB4FF410633B6101237B610023BB61F1
:10024C000223FB6107F110031946054802F026FB57
:10025C0000BF2037BD4680BD00100240000C01409D
:10026C000008014080B582B000AF02F083F900F0C5
:10027C006FF8FFF76DFF01F0B1FD01F01DFE01F00D
:10028C003BFF01F085FF02F073F802F09BF800F0E1
:10029C00C7FD01F0C5FA00F0B5FD264804F0E4F8FE
:1002AC000021254804F0B8F90421234804F0B4F9DE
:1002BC0000F0B6FD00F05EFE0346FB71FB79062BE9
:1002CC000AD100F0F3FB1D4B1B889BB2DBB2194625
:1002DC00062000F06DF92BE0FB79072B05D1184BAC
:1002EC0001221A7000F028F922E0FB79002B0FD0C4
:1002FC00144B1B78FA799A4203D1124B00221A70D4
:10030C0006E0104B1B78002B02D10E4AFB791370C0
:10031C000D4B1B78DBB2002B05D00C4B00221A7056
:10032C0000F00CFEC6E7074B00221A7000F078FDB7
:10033C00C0E700BFC001002078010020D2000020DF
:10034C00D5000020D4000020D000002000000020A8
:10035C0080B594B000AF07F128032822002118467D
:10036C0005F09CF907F1140300221A605A609A6098
:10037C00DA601A613B1D00221A605A609A60DA60DA
:10038C000A23BB620123BB631023FB6301233B6481
:10039C0002237B640023BB644FF46013FB6407F1FE
:1003AC002803184602F052FC0346002B01D001F042
:1003BC0087FB0F237B610223BB610023FB614FF49E
:1003CC0080633B6200237B6207F114030221184611
:1003DC0002F0BCFE0346002B01D001F071FB01239F
:1003EC007B604FF40073BB603B1D184603F048F86C
:1003FC000346002B01D001F063FB00BF5037BD4614
:10040C0080BD000080B584B000AF0346FB714FF097
:10041C00FF331F221549164804F0ABFF02233B7231
:10042C00144B1B889BB2DBB27B720023BB72124B4A
:10043C001B78FB72FB793B7303237B730D23BB731C
:10044C000A23FB7307F108014FF0FF330822084819
:10045C0004F08FFF07F108014FF0FF330822074823
:10046C0004F087FF00BF1037BD4680BD445F000815
:10047C004C020020D2000020D400002008020020F2
:10048C0080B582B000AF0346FB71FB79013B042BB6
:10049C0043D801A252F823F0B9040008CB04000899
:1004AC00DD040008F904000815050008FB791D4A55
:1004BC001278D2B21146184600F0F6F92DE0FB790D
:1004CC00194A1278D2B21146184600F0EDF924E020
:1004DC0001221221032001F09DFBFB79134A1278B3
:1004EC00D2B21146184600F0DFF916E001221321B2
:1004FC00032001F08FFBFB790D4A1278D2B2114622
:10050C00184600F0D1F908E0FB790A4A1278D2B209
:10051C001146184600F0C8F900BF00BF0837BD46A9
:10052C0080BD00BF0100002002000020030000205D
:10053C00040000200500002080B582B000AF00F060
:10054C00B5FA194B00221A7027E000F013FD034690
:10055C00FB71FB79072B0FD1144B1B780133DAB2EB
:10056C00124B1A70114B1B78052B16D90F4B00220E
:10057C001A7000F09BFA14E0FB79012B05D10B4BA0
:10058C001B78184600F060F807E0FB79022B04D1C9
:10059C00064B1B78184600F0EFF8044B1B78002B29
:1005AC00D3D10837BD4680BD00000020D500002007
:1005BC0080B582B000AF03460A46FB711346BB718F
:1005CC00FB79013B052B39D801A252F823F000BF6F
:1005DC00F505000803060008110600081F060008B0
:1005EC002D0600083B060008BB791A460121154868
:1005FC0003F04EFC22E0BB791A460221114803F0AD
:10060C0047FC1BE0BB791A4603210E4803F040FC63
:10061C0014E0BB791A4604210A4803F039FC0DE0BA
:10062C00BB791A460521074803F032FC06E0BB797A
:10063C001A460621034803F02BFC00BF00BF083705
:10064C00BD4680BD0C01002080B582B000AF0346D2
:10065C00FB71FB79002B75D0FB79013B042B7CD80B
:10066C0001A252F823F000BF89060008B106000869
:10067C00D90600080107000829070008394B1B7828
:10068C00DBB2622B60D8374B1B78DBB20133DAB2AA
:10069C00344B1A70334B1B78DBB219460120FFF731
:1006AC0087FF51E0304B1B78DBB2622B4ED82E4BC0
:1006BC001B78DBB20133DAB22B4B1A702A4B1B7846
:1006CC00DBB219460220FFF773FF3FE0274B1B7884
:1006DC00DBB2622B3CD8254B1B78DBB20133DAB290
:1006EC00224B1A70214B1B78DBB219460320FFF703
:1006FC005FFF2DE01E4B1B78DBB2622B2AD81C4B04
:10070C001B78DBB20133DAB2194B1A70184B1B7819
:10071C00DBB219460420FFF74BFF1BE0154B1B788F
:10072C00DBB2622B18D8134B1B78DBB20133DAB275
:10073C00104B1A700F4B1B78DBB219460520FFF7D4
:10074C0037FF09E000BF08E000BF06E000BF04E08F
:10075C0000BF02E000BF00E000BF00BF0837BD468D
:10076C0080BD00BF0100002002000020030000201B
:10077C00040000200500002080B582B000AF0346C5
:10078C00FB71FB79002B75D0FB79013B042B7CD8DA
:10079C0001A252F823F000BFB9070008E1070008D6
:1007AC00090800083108000859080008394B1B7863
:1007BC00DBB2002B60D0374B1B78DBB2013BDAB2DB
:1007CC00344B1A70334B1B78DBB219460120FFF700
:1007DC00EFFE51E0304B1B78DBB2002B4ED02E4B92
:1007EC001B78DBB2013BDAB22B4B1A702A4B1B780D
:1007FC00DBB219460220FFF7DBFE3FE0274B1B78EC
:10080C00DBB2002B3CD0254B1B78DBB2013BDAB2C0
:10081C00224B1A70214B1B78DBB219460320FFF7D1
:10082C00C7FE2DE01E4B1B78DBB2002B2AD01C4BD5
:10083C001B78DBB2013BDAB2194B1A70184B1B78E0
:10084C00DBB219460420FFF7B3FE1BE0154B1B78F7
:10085C00DBB2002B18D0134B1B78DBB2013BDAB2A6
:10086C00104B1A700F4B1B78DBB219460520FFF7A3
:10087C009FFE09E000BF08E000BF06E000BF04E0F7
:10088C0000BF02E000BF00E000BF00BF0837BD465C
:10089C0080BD00BF010000200200002003000020EA
:1008AC00040000200500002080B582B000AF786005
:1008BC00396001F09FF901F03BF93B68092B04DC2E
:1008CC003968012001F000FA09E03B68092B06DDCC
:1008DC003B68632B03DC3968022001F0F5F97B6877
:1008EC00DBB201221946032001F094F900BF08374E
:1008FC00BD4680BD80B58CB000AF78607B681B684E
:10090C00B3F1804F77D13E4B1B6801333C4A1360E7
:10091C003C4B1B6801333B4A13603B4B1B68013358
:10092C00394A1360394B1B680133384A1360384B12
:10093C001B680133364A1360314B1968354B83FB06
:10094C0001239A10CB17D21A13469B0013445B0059
:10095C00CA1A002A22D1304B1B781A4607F10C0315
:10096C002E49184604F0A2FE07F10C031846FFF7B7
:10097C00E7FB03469AB207F10C014FF0FF3328480E
:10098C0004F0F7FC274B1B78002B07D0264B0022DA
:10099C001A70244B1B781846FFF772FD184B1B6816
:1009AC00632B04DD164B00221A6000F035F9154B51
:1009BC001B68312B04DD134B00221A6000F090F9F8
:1009CC00134B1B68132B04DD114B00221A6000F033
:1009DC0095F90D4B1B681D2B04DD0B4B00221A6087
:1009EC0000F0CAF9094B1B68272B04DD074B0022CA
:1009FC001A6000F0CDF900BF3037BD4680BD00BF96
:100A0C00B8000020C8000020BC000020C40000205A
:100A1C00C000002067666666D4000020645F000892
:100A2C004C020020D50000200000002080B485B0CE
:100A3C0000AF0346FB710023FB73FB79013B042BD6
:100A4C0020D801A252F823F0690A0008710A0008A4
:100A5C00790A0008810A0008890A00080E4B1B78E5
:100A6C00FB7312E00D4B1B78FB730EE00C4B1B78E9
:100A7C00FB730AE00B4B1B78FB7306E00A4B1B78ED
:100A8C00FB7302E00A23FB7300BFFB7B1846143791
:100A9C00BD4680BC704700BF010000200200002052
:100AAC0003000020040000200500002080B500AFEA
:100ABC001A4803F02BFD194B1B6800225A62174B86
:100ACC001B686FF001021A6100F0AAF9144B0022A6
:100ADC001A70144B00221A80134B01221A70134BFC
:100AEC0000221A70124B00221A7001F06FF801F0FC
:100AFC001FF8104B00221A600F4B00221A600F4B8C
:100B0C0000221A600E4B00221A600E4B00221A6053
:100B1C00024803F0A9FC00BF80BD00BFC00100204B
:100B2C00D8000020D200002000000020D0000020BF
:100B3C00D4000020B8000020C8000020BC00002019
:100B4C00C4000020C000002080B58AB000AF2B4B41
:100B5C001B78DBB2002B4DD0294B1B78DBB2013359
:100B6C00DAB2274B1A70264B1B78DBB21A463B1DA8
:100B7C002449184604F09AFD3B1D1846FFF7E0FA8D
:100B8C0003469AB2391D4FF0FF331F4804F0F1FBB6
:100B9C001E4B1B781846FFF749FF034687F8273092
:100BAC00174B1B78DBB297F827209A421AD8144BB4
:100BBC0000221A704FF0FF3314221549124804F02A
:100BCC00D8FB144B1B889BB2013B9AB2114B1A8079
:100BDC00104B1B889BB2002B04D10E4B00221A80A9
:100BEC00FFF764FF0B4B1B889BB2DBB21946062048
:100BFC00FFF7DEFC00BF2837BD4680BDD8000020C3
:100C0C00DE0000207C5F00084C020020D400002095
:100C1C00985F0008D200002080B58AB000AF4FF07A
:100C2C00FF330B222649274804F0A3FB264B1B88D5
:100C3C009BB21A46254B1B78381D254904F036FD0E
:100C4C003B1D1846FFF77CFA03469AB2391D4FF04C
:100C5C00FF331C4804F08DFBFFF776FF1D4B1B6820
:100C6C0001331C4A13601B4B1B68042B23DD00F063
:100C7C0057FF184B00221A600020FFF7C3FB164BDE
:100C8C001B78DBB2002B08D0134B1B78DBB2184659
:100C9C00FFF7B8FB104B00221A70104B1B78DBB21D
:100CAC00002B08D00D4B1B78DBB21846FFF7AAFBC4
:100CBC000A4B00221A7000BF2837BD4680BD00BF0A
:100CCC00B05F00084C020020D2000020D4000020AD
:100CDC00BC5F0008CC000020FE000020FD000020BE
:100CEC0080B500AF044B1B889BB2DBB219460620C3
:100CFC00FFF75EFC00BF80BDD200002080B58AB03B
:100D0C0000AF184B1B78DBB2002B07D0164B1B889F
:100D1C009BB201339AB2144B1A8002E0124B0022A0
:100D2C001A80114B1B889BB21A463B1D0F49184663
:100D3C0004F0BCFC3B1D1846FFF702FA03469AB2BE
:100D4C00391D4FF0FF330A4804F013FB094B1B7895
:100D5C00DBB2002B01D000F021FA00BF2837BD46D2
:100D6C0080BD00BFDA000020DC000020E05F00083E
:100D7C004C0200200000002080B500AF4FF4006151
:100D8C00024801F03EFF00BF80BD00BF00080140DB
:100D9C0080B500AF174B1B78DBB2002B25D0164B60
:100DAC001B78DBB2002B14BF01230023DBB283F0D2
:100DBC000103DBB203F00103DAB20F4B1A700E4BD6
:100DCC001B78DBB2002B07D00C4B1B78DBB2002B53
:100DDC0002D000F005FF0AE000F0F8FE084B1B887B
:100DEC009BB2184600F0B0F901E000F0EFFE00BF36
:100DFC0080BD00BFD0000020D9000020D60000200C
:100E0C00D200002080B500AF00F08AFE642001F013
:100E1C0013FC052000F059FE00F0ECFE00BF80BD75
:100E2C0080B500AF00220121124801F0D2FE002251
:100E3C000221104801F0CDFE00224FF480710E48C3
:100E4C0001F0C7FE00224FF480710A4801F0C1FE88
:100E5C0000224FF40071074801F0BBFE00224FF452
:100E6C008051044801F0B5FE044B00221A7000BFFB
:100E7C0080BD00BF000C014000080140D6000020DE
:100E8C0080B582B000AF0346FB71294B1B78DBB2F7
:100E9C00FA799A4248D0FFF7C3FFFB79013B042B48
:100EAC003CD801A252F823F0C90E0008DB0E000852
:100EBC00ED0E0008010F0008150F0008012201219A
:100ECC001C4801F086FE1A4B01221A702DE00122FB
:100EDC000221184801F07DFE154B02221A7024E005
:100EEC0001224FF48071144801F073FE104B032261
:100EFC001A701AE001224FF480710E4801F069FE5D
:100F0C000B4B04221A7010E001224FF400710948B7
:100F1C0001F05FFE064B05221A7006E0FFF780FF1A
:100F2C00034B00221A7000E000BF0837BD4680BD9D
:100F3C00D6000020000C01400008014080B500AF35
:100F4C00094B1B781846FFF79BFF084B1B78DBB24D
:100F5C00002B03D0064B01221A7002E0044B002236
:100F6C001A7000BF80BD00BFD4000020D600002046
:100F7C00D800002080B500AF0821684801F012FEAF
:100F8C000346002B13D0502001F056FB00BF082164
:100F9C00624801F007FE0346002BF8D14FF0FF33F7
:100FAC0012225F495F4804F0E4F90123B3E01021F9
:100FBC005A4801F0F7FD0346002B13D0502001F0E6
:100FCC003BFB00BF1021554801F0ECFD0346002B04
:100FDC00F8D14FF0FF3312225349524804F0C9F9AB
:100FEC00022398E020214D4801F0DCFD0346002B44
:100FFC0013D0502001F020FB00BF2021474801F006
:10100C00D1FD0346002BF8D14FF0FF331222474994
:10101C00444804F0AEF903237DE040213F4801F041
:10102C00C1FD0346002B13D0502001F005FB00BF7F
:10103C0040213A4801F0B6FD0346002BF8D14FF0A1
:10104C00FF3312223A49374804F093F9042362E043
:10105C008021324801F0A6FD0346002B22D05020FF
:10106C0001F0EAFA334B01221A7008E0324B1B886C
:10107C009BB23B2B03D9FFF719FD00234BE08021DA
:10108C00264801F08FFD0346002BEFD1294B00229F
:10109C001A704FF0FF3312222849224804F069F9E4
:1010AC00052338E04FF400411C4801F07BFD03465A
:1010BC00002B14D0502001F0BFFA00BF4FF40041B8
:1010CC00164801F06FFD0346002BF7D14FF0FF33AC
:1010DC001E221B49134804F04CF906231BE0042183
:1010EC000E4801F05FFD0346002B13D0502001F099
:1010FC00A3FA00BF0421094801F054FD0346002B5C
:10110C00F8D14FF0FF3316220E49064804F031F99E
:10111C00072300E00023184680BD00BF00080140F3
:10112C00046000084C020020186000082C600008C5
:10113C0040600008DA000020DC0000205460000849
:10114C00686000088860000880B582B000AF7860E5
:10115C0000F046FD052000F0B8FC00F0E9FC00F0C2
:10116C0049FD00F0E5FC7B68092B04DC7968012063
:10117C0000F0AAFD0EE07B68092B07DD7B68632B72
:10118C0004DC7968022000F09FFD03E079680320FD
:10119C0000F09AFD00BF0837BD4680BD80B500AF9A
:1011AC0000F0C6FC00F026FD00F0C2FC384B1B78AA
:1011BC00DBB2032B4AD801A252F823F0D911000854
:1011CC00F9110008191200083912000800220A212E
:1011DC00012000F01FFD00220F21022000F01AFD5B
:1011EC0000220F21032000F015FD3FE000220F210B
:1011FC00012000F00FFD00220A21022000F00AFD60
:10120C0000220F21032000F005FD2FE000220F210A
:10121C00012000F0FFFC00220F21022000F0FAFC5C
:10122C0000220A21032000F0F5FC1FE000220F2110
:10123C00012000F0EFFC00220A21022000F0EAFC61
:10124C0000220F21032000F0E5FC0FE000220A2110
:10125C00012000F0DFFC00220A21022000F0DAFC61
:10126C0000220A21032000F0D5FC00BF084B1B789C
:10127C00DBB2022B03D9064B00221A7006E0044B9A
:10128C001B78DBB20133DAB2014B1A7000BF80BDA0
:10129C00D700002080B59EB000AF7860504B1B7813
:1012AC00DBB21A464F4B1B7813441A467B689342A9
:1012BC007BD84B4B1B78DBB21A464A4B1B78D31AA4
:1012CC001A467B68934270D3474B1B78DBB21A46A5
:1012DC0007F130034549184604F0E8F907F13003EB
:1012EC001846FEF72DFF03469AB207F130014FF076
:1012FC00FF333F4804F03DF83B4B1B78DBB29AB20E
:10130C003C4B1B889BB213449AB23A4B1A803A4B13
:10131C0000221A60344B1B78DAB2384B1B78DBB2E4
:10132C001344DAB2354B1A70324B1B889BB240F225
:10133C00E632934203D92F4B40F2E7321A8000F089
:10134C0045FC2C4B1B889BB21846FFF7FDFE2C4B23
:10135C0000221A70274B1B889BB21A46294B1B681C
:10136C009A4209DB284B01221A704FF0FF331922E5
:10137C0026491F4803F0FDFF1E4B1B889BB21A46E3
:10138C0007F10C032249184604F090F907F10C03FD
:10139C001846FEF7D5FE03469AB207F10C014FF042
:1013AC00FF33134803F0E5FF15E07A6807F15803A3
:1013BC001849184604F07AF907F158031846FEF755
:1013CC00BFFE03469AB207F158014FF0FF330848AD
:1013DC0003F0CFFF00BF00BF7837BD4680BD00BF14
:1013EC00060000200800002009000020A060000872
:1013FC004C020020D2000020CC000020FD00002078
:10140C00000000200C000020D0000020B860000874
:10141C00D4600008EC60000880B594B000AF786030
:10142C0000F07EFB444B1B78DBB21A46434B1B7817
:10143C0013441A467B68934263D83F4B1B78DBB24C
:10144C001A463E4B1B78D31A1A467B68934258D3E4
:10145C003B4B1B78DBB21A4607F108033949184697
:10146C0004F024F907F108031846FEF769FE034659
:10147C009AB207F108014FF0FF33334803F079FFBC
:10148C002F4B1B78DBB29AB2304B1B889BB21344A8
:10149C009AB22E4B1A802E4B00221A60284B1B78C6
:1014AC00DAB22C4B1B78DBB21344DAB2294B1A702C
:1014BC00264B1B889BB240F2E632934203D9234B56
:1014CC0040F2E7321A80244B00221A7000F07EFBA7
:1014DC001E4B1B889BB21846FFF736FE1B4B1B8816
:1014EC009BB21A461D4B1B689A4220DB1C4B0122F7
:1014FC001A704FF0FF3319221A49134803F039FFC1
:10150C0015E07A6807F130031749184604F0CEF855
:10151C0007F130031846FEF713FE03469AB207F1A3
:10152C0030014FF0FF33084803F023FF00E000BF09
:10153C0000BF5037BD4680BD0700002008000020CA
:10154C000A000020A06000084C020020D2000020FD
:10155C00CC000020FE000020000000200C00002029
:10156C00D0000020B8600008EC60000880B58CB09A
:10157C0000AF78609A4802F0C9FF994B1B680022B3
:10158C005A62974B1B686FF001021A617B681B68EB
:10159C00944A934240F08B807B681B7F022B40F077
:1015AC0086804FF0FF3309228F49904803F0E1FE0B
:1015BC008F4B1B78DBB2002B1AD10421786803F017
:1015CC0091FB03468B4A1360894B01221A707B688E
:1015DC001B681A6A7B681B6822F0A0021A627B687F
:1015EC001B681A6A7B681B6842F020021A625EE074
:1015FC007F4B1B78DBB2012B59D10421786803F0A7
:10160C0071FB03467C4A13607B681B6800225A629C
:10161C00794B1A68774B1B689A4207D9764B1A6834
:10162C00744B1B68D31A754A13600FE0714B1A6820
:10163C00714B1B689A4209D96F4B1A686D4B1B682A
:10164C00D31A03F57F43FF336C4A1360684B0022B7
:10165C001A707B681B681A6A7B681B6822F0A002F0
:10166C001A627B681A687B681B68126A1A62634B81
:10167C001B68634AA2FB03239B091846FFF70AFE6B
:10168C005E4B1B681A4607F10C035E49184604F0C2
:10169C000DF807F10C031846FEF752FD03469AB2FB
:1016AC0007F10C014FF0FF33504803F062FE7B68EA
:1016BC001B684C4A934240F08B807B681B7F012B4C
:1016CC0040F086804FF0FF3309224F49474803F022
:1016DC0050FE4E4B1B78DBB2002B1AD100217868E0
:1016EC0003F000FB03464A4A1360484B01221A7070
:1016FC007B681B681A6A7B681B6822F00A021A62F4
:10170C007B681B681A6A7B681B6842F002021A62CB
:10171C005EE03E4B1B78DBB2012B59D1002178687F
:10172C0003F0E0FA03463B4A13607B681B68002217
:10173C005A62384B1A68364B1B689A4207D9354B9C
:10174C001A68334B1B68D31A334A13600FE0304BC3
:10175C001A68304B1B689A4209D92E4B1A682C4BCD
:10176C001B68D31A03F57F43FF332B4A1360274BB7
:10177C0000221A707B681B681A6A7B681B6822F04F
:10178C000A021A627B681A687B681B68126A1A6202
:10179C00214B1B681A4AA2FB03239B091846FFF72F
:1017AC003BFE1D4B1B681A4607F10C031B491846E0
:1017BC0003F07CFF07F10C031846FEF7C1FC03464F
:1017CC009AB207F10C014FF0FF33084803F0D1FD3A
:1017DC00034802F049FE00BF3037BD4680BD00BF54
:1017EC00C0010020000400400C6100084C020020E5
:1017FC00EC000020E0000020E4000020E8000020C5
:10180C00D34D62101861000834610008FC00002000
:10181C00F0000020F4000020F800002040610008D7
:10182C0080B58AB000AF0121914802F04BFB034612
:10183C00DAB2904B1A7002218D4802F043FB03463A
:10184C00DAB28D4B1A700321894802F03BFB034638
:10185C00DAB28A4B1A700421854802F033FB034636
:10186C00DAB2874B1A700521814802F02BFB034634
:10187C00DAB2844B1A7006217D4802F023FB034632
:10188C009AB2814B1A800221804801F08BF90346F1
:10189C00012B03D17C4B40F2E7321A807A4B1B8828
:1018AC009BB2012B0CD97A4B01221A70794B002276
:1018BC001A70794B00221A70784B00221A7001E0D2
:1018CC00FFF7F4F86B4B1B78DBB21A463B1D7449DF
:1018DC00184603F0EBFE3B1D1846FEF731FC0346A1
:1018EC009AB2391D4FF0FF336E4803F042FD624B44
:1018FC001B78DBB21A463B1D6B49184603F0D6FE2B
:10190C003B1D1846FEF71CFC03469AB2391D4FF0DE
:10191C00FF33644803F02DFD584B1B78DBB21A469D
:10192C003B1D6249184603F0C1FE3B1D1846FEF7ED
:10193C0007FC03469AB2391D4FF0FF33594803F0A8
:10194C0018FD4F4B1B78DBB21A463B1D5849184605
:10195C0003F0ACFE3B1D1846FEF7F2FB03469AB2B1
:10196C00391D4FF0FF334F4803F003FD454B1B78F7
:10197C00DBB21A463B1D4F49184603F097FE3B1D40
:10198C001846FEF7DDFB03469AB2391D4FF0FF33C4
:10199C00444803F0EEFC3C4B1B889BB21A463B1DA3
:1019AC004549184603F082FE3B1D1846FEF7C8FB5E
:1019BC0003469AB2391D4FF0FF333A4803F0D9FC75
:1019CC002C4B1B78DBB2002B13D02B4B1B78DBB2D0
:1019DC00002B0ED0294B1B78DBB2002B09D0284BE7
:1019EC001B78DBB2002B04D0264B1B78DBB2002B10
:1019FC0036D1324B1B781A4601211D4802F048FAA9
:101A0C002E4B1B781A460221194802F041FA2B4B37
:101A1C001B781A460321164802F03AFA274B1B781A
:101A2C001A460421124802F033FA244B1B781A464A
:101A3C0005210F4802F02CFA204B1A780D4B1A7026
:101A4C001E4B1A780C4B1A701C4B1A780B4B1A70D5
:101A5C001A4B1A780A4B1A70184B1A78094B1A70D1
:101A6C004FF4967000F0E8FD00BF2837BD4680BDEE
:101A7C000C010020010000200200002003000020C7
:101A8C000400002005000020D200002000080140C6
:101A9C00D000002000000020D8000020DE00002034
:101AAC005C6100084C0200207C6100089C6100080D
:101ABC00BC610008DC610008FC610008100000201B
:101ACC0080B400AF72B600BFFEE780B582B000AF45
:101ADC000346FB7100F084F800F022F800F076F871
:101AEC0007210B2000F048F8FB79184600F006F8A7
:101AFC0000F01EF800BF0837BD4680BD80B582B02F
:101B0C0000AF0346FB71FB790F2B05D8FB79194607
:101B1C000A2000F031F800E000BF0837BD4680BD58
:101B2C0080B500AF00210F2000F026F800BF80BD6B
:101B3C0080B582B000AF0023FB710E4B1B78FF2BDE
:101B4C0001D10F23FB7100233B600BE03B68DBB240
:101B5C000133DBB2FA791146184600F00DF83B68F8
:101B6C0001333B603B68072BF0DD00BF00BF08373B
:101B7C00BD4680BDFF00002080B582B000AF03469B
:101B8C000A46FB711346BB7100224FF480410D488D
:101B9C0001F01FF8F91D4FF0FF3301220A4802F043
:101BAC0031FAB91D4FF0FF330122074802F02AFA2F
:101BBC0001224FF48041034801F00BF800BF0837B5
:101BCC00BD4680BD000C01402001002080B500AF57
:101BDC00FFF7A6FF01210C20FFF7CEFF00BF80BD51
:101BEC0080B500AFFFF79CFF00210C20FFF7C4FF6E
:101BFC0000BF80BD80B500AF054BFF221A70044BAF
:101C0C001B7819460920FFF7B7FF00BF80BD00BF46
:101C1C00FF00002080B582B000AF0346FB710B467D
:101C2C00BB7113467B71FFF77BFFFB79082B44D804
:101C3C007B79002B20D0234B1B78002B0ED1BB794A
:101C4C00184600F0BBF80346DBB263F07F03DAB250
:101C5C00FB7911461846FFF78FFF2FE0194B1B78C5
:101C6C00FF2B2BD1BB7963F07F03DAB2FB791146E2
:101C7C001846FFF781FF21E0124B1B78002B0ED189
:101C8C00BB79184600F09AF80346DBB203F07F03E9
:101C9C00DAB2FB7911461846FFF76EFF0EE0094BDE
:101CAC001B78FF2B0AD1BB7903F07F03DAB2FB79E7
:101CBC0011461846FFF760FF00E000BF0837BD462D
:101CCC0080BD00BFFF00002080B584B000AF03468C
:101CDC003960FB71FFF724FFFF210920FFF74CFF50
:101CEC003B68002B0DDAFB79002B07D0FB790A211E
:101CFC001846FFF741FFFB79013BFB713B685B42E8
:101D0C003B600123FB6005E0FA6813469B0013441B
:101D1C005B00FB603A68FB6892FBF3F3092BF3DC86
:101D2C00FB79002B0CD03A68FB6892FBF3F3DAB228
:101D3C00FB7911461846FFF71FFFFB79013BFB713E
:101D4C00FB681C4A82FB03129210DB17D31AFB6050
:101D5C0022E0FB79002B17D0FA6813469B00134442
:101D6C005B001A463B6893FBF2F102FB01F29A1AF4
:101D7C00FB6892FBF3F3DAB2FB7911461846FFF7D6
:101D8C00FBFEFB79013BFB71FB680A4A82FB0312E9
:101D9C009210DB17D31AFB60FB68002BD9DC064BC7
:101DAC001B7819460920FFF7E7FEFB791846103718
:101DBC00BD4680BD67666666FF00002080B483B0B8
:101DCC0000AF0346FB71FB79034AD35C9BB2184608
:101DDC000C37BD4680BC70471400002080B582B023
:101DEC0000AF3B1D00210A461A800A469A70002358
:101DFC003B601D4B1D4A1A601B4B4FF0FF325A6063
:101E0C00194B4FF480729A60174801F0B3FC0346EB
:101E1C00002B01D0FFF754FE00233B7100237B7194
:101E2C000023BB713B1D012219460F4801F038FD00
:101E3C000346002B01D0FFF743FE01233B70012327
:101E4C007B700123BB700023FB703B4601221946BB
:101E5C00054801F0BDFD0346002B01D0FFF730FE15
:101E6C0000BF0837BD4680BD0C0100200028004093
:101E7C0080B584B000AF78607B681B680B4A9342D6
:101E8C0010D100F0D7FE0A4BDB69094A43F000631E
:101E9C00D361074BDB6903F00063FB60FB68054B08
:101EAC0001221A6000BF1037BD4680BD00280040DB
:101EBC00001002403C04424280B500AF174B184A58
:101ECC001A60164B4FF482725A60144B00229A60BF
:101EDC00124B0022DA60114B00221A610F4B0022C8
:101EEC005A610E4B4FF400729A610C4B0822DA6166
:101EFC000A4B00221A62094B00225A62074B00223D
:101F0C009A62064B0A22DA62044801F0F7FF034694
:101F1C00002B01D0FFF7D4FD00BF80BD20010020B5
:101F2C000038004080B588B000AF786007F110032E
:101F3C0000221A605A609A60DA607B681B68164A45
:101F4C00934224D1154BDB69144A43F48043D3618B
:101F5C00124BDB6903F48043FB60FB680F4B9B69FE
:101F6C000E4A43F0080393610C4B9B6903F0080382
:101F7C00BB60BB684FF420433B6102237B610323AE
:101F8C00FB6107F110031946054800F087FC00BF00
:101F9C002037BD4680BD00BF003800400010024015
:101FAC00000C014080B485B000AF154B9B69144AFE
:101FBC0043F001039361124B9B6903F00103BB6077
:101FCC00BB680F4BDB690E4A43F08053D3610C4B5B
:101FDC00DB6903F080537B607B680A4B5B68FB60BA
:101FEC00FB6823F0E063FB60FB6843F00073FB606D
:101FFC00044AFB68536000BF1437BD4680BC704771
:10200C00001002400000014080B400AFFEE780B435
:10201C0000AFFEE780B400AFFEE780B400AFFEE790
:10202C0080B400AFFEE780B400AF00BFBD4680BCFB
:10203C00704780B400AF00BFBD4680BC704780B411
:10204C0000AF00BFBD4680BC704780B500AF00F04C
:10205C00D7FA00BF80BD000080B500AF024802F087
:10206C00E1FB00BF80BD00BFC001002080B500AF08
:10207C00024802F0D7FB00BF80BD00BF78010020F2
:10208C0080B586B000AF7860144A154BD31A7B61CB
:10209C007B693B61134B1B68002B02D1114B124A1D
:1020AC001A60104B1A687B6813443A699A4207D23B
:1020BC0003F0CAFA03460C221A604FF0FF3309E012
:1020CC00084B1B68FB60074B1A687B681344054A76
:1020DC001360FB6818461837BD4680BD00500020C1
:1020EC000004000000010020A802002080B400AF12
:1020FC0000BFBD4680BC704780B586B000AF07F10D
:10210C00080300221A605A609A60DA603B4600228B
:10211C001A605A601D4B4FF080421A601B4B77229D
:10212C005A601A4B00229A60184B41F26F72DA60B7
:10213C00164B00221A61154B00229A61134802F0CB
:10214C0043F90346002B01D0FFF7BAFC4FF4805340
:10215C00BB6007F1080319460C4802F0FFFC03466C
:10216C00002B01D0FFF7ACFC00233B6000237B600D
:10217C003B461946054803F03FF80346002B01D0B7
:10218C00FFF79EFC00BF1837BD4680BDC001002084
:10219C0080B58AB000AF07F1180300221A605A60AC
:1021AC009A60DA6007F1100300221A605A603B460D
:1021BC0000221A605A609A60DA60314B314A1A6018
:1021CC002F4B47225A602E4B00229A602C4B4FF615
:1021DC00FE72DA602A4B00221A61294B00229A61A6
:1021EC00274802F0F1F80346002B01D0FFF768FCFA
:1021FC004FF48053BB6107F118031946204802F0D5
:10220C00ADFC0346002B01D0FFF75AFC1C4802F032
:10221C00ABF90346002B01D0FFF752FC00233B61C6
:10222C0000237B6107F110031946154802F0E4FF07
:10223C000346002B01D0FFF743FC00233B60012336
:10224C007B600023BB600023FB603B4600221946E9
:10225C000B4802F0EFFB0346002B01D0FFF730FCDC
:10226C003B4604221946064802F0E4FB0346002BC9
:10227C0001D0FFF725FC00BF2837BD4680BD00BF4D
:10228C00780100200004004080B58AB000AF78606F
:10229C0007F1140300221A605A609A60DA607B68B6
:1022AC001B68B3F1804F14D12D4BDB692C4A43F0E2
:1022BC000103D3612A4BDB6903F001033B613B69EA
:1022CC00002203211C2000F0B2FA1C2000F0CBFAF3
:1022DC0042E07B681B68234A93423DD1204BDB696B
:1022EC001F4A43F00203D3611D4BDB6903F0020369
:1022FC00FB60FB681A4B9B69194A43F00803936116
:10230C00174B9B6903F00803BB60BB6830237B61F0
:10231C000023BB610223FB6107F114031946124829
:10232C0000F0BCFA114B5B687B627B6A23F4406360
:10233C007B627B6A43F0E0637B627B6A43F40063FD
:10234C007B620A4A7B6A5360002200211D2000F048
:10235C006EFA1D2000F087FA00BF2837BD4680BDFD
:10236C000010024000040040000C0140000001403D
:10237C0080B500AF114B124A1A60104B4FF4E1328A
:10238C005A600E4B00229A600C4B0022DA600B4B09
:10239C0000221A61094B0C225A61084B00229A61E7
:1023AC00064B0022DA61054802F096FF0346002B2B
:1023BC0001D0FFF785FB00BF80BD00BF4C020020A1
:1023CC000038014080B500AF114B124A1A60104B17
:1023DC004FF4E1325A600E4B00229A600C4B0022F3
:1023EC00DA600B4B00221A61094B0C225A61084B24
:1023FC0000229A61064B0022DA61054802F06CFF5C
:10240C000346002B01D0FFF75BFB00BF80BD00BF74
:10241C00080200200048004080B58AB000AF786008
:10242C0007F1180300221A605A609A60DA607B6820
:10243C001B68384A934232D1374B9B69364A43F476
:10244C0080439361344B9B6903F480437B617B69CC
:10245C00314B9B69304A43F0040393612E4B9B69CB
:10246C0003F004033B613B694FF40073BB6102232F
:10247C00FB6103237B6207F118031946274800F020
:10248C000DFA4FF48063BB610023FB6100233B62B8
:10249C0007F118031946214800F000FA36E07B6872
:1024AC001B681F4A934231D11B4BDB691A4A43F418
:1024BC008023D361184BDB6903F48023FB60FB683A
:1024CC00154B9B69144A43F008039361124B9B69AB
:1024DC0003F00803BB60BB684FF48063BB6102234D
:1024EC00FB6103237B6207F1180319460D4800F0CA
:1024FC00D5F94FF40063BB610023FB6100233B6201
:10250C0007F118031946074800F0C8F900BF28372F
:10251C00BD4680BD0038014000100240000801405B
:10252C0000480040000C01400C480D490D4A0023A6
:10253C0002E0D458C4500433C4188C42F9D30A4A6C
:10254C000A4C002301E013600432A242FBD3FFF7D4
:10255C00CDFD03F07FF8FDF785FE704700000020ED
:10256C009C0000208C6200089C000020A40200202B
:10257C00FEE7000080B500AF084B1B68074A43F02C
:10258C0010031360032000F047F90F2000F008F847
:10259C00FFF708FD0023184680BD00BF0020024055
:1025AC0080B582B000AF7860124B1A68124B1B7862
:1025BC0019464FF47A73B3FBF1F3B2FBF3F31846FD
:1025CC0000F05FF90346002B01D001230EE07B687D
:1025DC000F2B0AD8002279684FF0FF3000F027F952
:1025EC00064A7B681360002300E001231846083775
:1025FC00BD4680BD2C00002034000020300000209F
:10260C0080B400AF054B1B781A46054B1B6813446E
:10261C00034A136000BFBD4680BC704734000020E5
:10262C009002002080B400AF024B1B681846BD46D8
:10263C0080BC70479002002080B584B000AF7860F9
:10264C00FFF7F0FFB8607B68FB60FB68B3F1FF3FFE
:10265C0005D00A4B1B781A46FB681344FB6000BF7D
:10266C00FFF7E0FF0246BB68D31AFA689A42F7D824
:10267C0000BF00BF1037BD4680BD00BF3400002036
:10268C0080B485B000AF78607B6803F00703FB6013
:10269C000C4BDB68BB60BA684FF6FF031340BB60A2
:1026AC00FB681A02BB68134343F0BF6343F4003367
:1026BC00BB60044ABB68D36000BF1437BD4680BC06
:1026CC00704700BF00ED00E080B400AF044BDB6846
:1026DC001B0A03F007031846BD4680BC704700BFB9
:1026EC0000ED00E080B483B000AF0346FB7197F9B6
:1026FC000730002B0BDBFB7903F01F02064997F91F
:10270C0007305B09012000FA02F241F8232000BFD8
:10271C000C37BD4680BC704700E100E080B483B04C
:10272C0000AF03463960FB7197F90730002B0ADBC9
:10273C003B68DAB20C4997F907301201D2B20B445C
:10274C0083F800230AE03B68DAB20849FB7903F00E
:10275C000F03043B1201D2B20B441A7600BF0C37A4
:10276C00BD4680BC704700BF00E100E000ED00E01A
:10277C0080B489B000AFF860B9607A60FB6803F090
:10278C000703FB61FB69C3F10703042B28BF042378
:10279C00BB61FB690433062B02D9FB69033B00E0E8
:1027AC0000237B614FF0FF32BB6902FA03F3DA437B
:1027BC00BB681A407B699A404FF0FF317B6901FA84
:1027CC0003F3D9437B680B40134318462437BD46AB
:1027DC0080BC704780B582B000AF78607B68013BED
:1027EC00B3F1807F01D301230FE00A4A7B68013BE0
:1027FC0053600F214FF0FF30FFF790FF054B002285
:10280C009A60044B07221A60002318460837BD460D
:10281C0080BD00BF10E000E080B582B000AF7860F2
:10282C007868FFF72DFF00BF0837BD4680BD80B527
:10283C0086B000AF0346B9607A60FB7300237B61FE
:10284C00FFF742FF78617A68B9687869FFF790FF03
:10285C00024697F90F3011461846FFF75FFF00BF8D
:10286C001837BD4680BD80B582B000AF0346FB7102
:10287C0097F907301846FFF735FF00BF0837BD46FC
:10288C0080BD80B582B000AF78607868FFF7A2FF9A
:10289C00034618460837BD4680BD000080B48BB097
:1028AC0000AF7860396000237B6200233B6269E1F2
:1028BC0001227B6A02FA03F3FB613B681B68FA692D
:1028CC001340BB61BA69FB699A4240F058813B687E
:1028DC005B689A4A93425ED0984A934275D8984A5C
:1028EC00934258D0964A93426FD8964A934252D00C
:1028FC00944A934269D8944A93424CD0924A934258
:10290C0063D8924A934246D0904A93425DD8122B98
:10291C002AD8122B59D801A252F823F0A329000867
:10292C007D2900088F290008D1290008D729000823
:10293C00D7290008D7290008D7290008D72900086B
:10294C00D7290008D7290008D7290008D72900085B
:10295C00D7290008D7290008D7290008D72900084B
:10296C008529000899290008794A934213D02CE054
:10297C003B68DB683B6229E03B68DB6804333B6205
:10298C0024E03B68DB6808333B621FE03B68DB6894
:10299C000C333B621AE03B689B68002B02D104238A
:1029AC003B6213E03B689B68012B05D108233B621B
:1029BC007B68FA691A6109E008233B627B68FA6953
:1029CC005A6103E000233B6200E000BFBB69FF2BB0
:1029DC0001D87B6801E07B6804337B61BB69FF2B0A
:1029EC0002D87B6A9B0002E07B6A083B9B003B6140
:1029FC007B691A680F213B6901FA03F3DB431A4028
:102A0C00396A3B6901FA03F31A437B691A603B6824
:102A1C005B6803F08053002B00F0B1804D4B9B6939
:102A2C004C4A43F0010393614A4B9B6903F0010349
:102A3C00BB60BB68484A7B6A9B08023352F8233060
:102A4C00FB607B6A03F003039B000F2202FA03F383
:102A5C00DB43FA681340FB607B68404A934213D017
:102A6C007B683F4A93420DD07B683E4A934207D025
:102A7C007B683D4A934201D1032306E0042304E022
:102A8C00022302E0012300E000237A6A02F0030231
:102A9C0092009340FA681343FB602F497B6A9B08B2
:102AAC000233FA6841F823203B685B6803F48033F7
:102ABC00002B06D02D4B1A682C49BB6913430B60B5
:102ACC0006E02A4B1A68BB69DB43284913400B60AC
:102ADC003B685B6803F40033002B06D0234B5A6829
:102AEC002249BB6913434B6006E0204B5A68BB6913
:102AFC00DB431E4913404B603B685B6803F4801357
:102B0C00002B06D0194B9A681849BB6913438B608C
:102B1C0006E0164B9A68BB69DB43144913408B6083
:102B2C003B685B6803F40013002B21D00F4BDA6871
:102B3C000E49BB691343CB6021E000BF000032108B
:102B4C0000003110000022100000211000001210B3
:102B5C00000011100010024000000140000801406C
:102B6C00000C014000100140001401400004014021
:102B7C000B4BDA68BB69DB4309491340CB607B6ABA
:102B8C0001337B623B681A687B6A22FA03F3002BE1
:102B9C007FF48EAE00BF00BF2C37BD4680BC7047A3
:102BAC000004014080B485B000AF78600B467B8098
:102BBC007B689A687B881340002B02D00123FB733F
:102BCC0001E00023FB73FB7B18461437BD4680BC29
:102BDC00704780B483B000AF78600B467B8013469F
:102BEC007B707B78002B03D07A887B681A6103E0BA
:102BFC007B881A047B681A6100BF0C37BD4680BC09
:102C0C00704780B485B000AF78600B467B807B68E2
:102C1C00DB68FB607A88FB6813401A04FB68D943B5
:102C2C007B880B401A437B681A6100BF1437BD4682
:102C3C0080BC704780B400AF034B01221A6000BF08
:102C4C00BD4680BC704700BF20000E4280B586B0E8
:102C5C0000AF78607B68002B01D101236CE27B68AC
:102C6C001B6803F00103002B00F08780924B5B681C
:102C7C0003F00C03042B0CD08F4B5B6803F00C039C
:102C8C00082B12D18C4B5B6803F48033B3F5803F77
:102C9C000BD1894B1B6803F40033002B6CD07B6881
:102CAC005B68002B68D1012346E27B685B68B3F557
:102CBC00803F06D1804B1B687F4A43F480331360FE
:102CCC002EE07B685B68002B0CD17B4B1B687A4A2F
:102CDC0023F480331360784B1B68774A23F48023EA
:102CEC0013601DE07B685B68B3F5A02F0CD1724BB1
:102CFC001B68714A43F4802313606F4B1B686E4A48
:102D0C0043F4803313600BE06B4B1B686A4A23F46B
:102D1C0080331360684B1B68674A23F4802313606D
:102D2C007B685B68002B13D0FFF77CFC386108E0F4
:102D3C00FFF778FC02463B69D31A642B01D90323B5
:102D4C00FAE15D4B1B6803F40033002BF0D014E068
:102D5C00FFF768FC386108E0FFF764FC02463B694A
:102D6C00D31A642B01D90323E6E1534B1B6803F4FC
:102D7C000033002BF0D100E000BF7B681B6803F030
:102D8C000203002B63D04C4B5B6803F00C03002B4D
:102D9C000BD0494B5B6803F00C03082B1CD1464B42
:102DAC005B6803F48033002B16D1434B1B6803F094
:102DBC000203002B05D07B681B69012B01D001237A
:102DCC00BAE13D4B1B6823F0F8027B685B69DB00C2
:102DDC00394913430B603AE07B681B69002B20D008
:102DEC00364B01221A60FFF71DFC386108E0FFF733
:102DFC0019FC02463B69D31A022B01D903239BE130
:102E0C002D4B1B6803F00203002BF0D02A4B1B68E0
:102E1C0023F0F8027B685B69DB00274913430B60E6
:102E2C0015E0264B00221A60FFF7FCFB386108E026
:102E3C00FFF7F8FB02463B69D31A022B01D9032397
:102E4C007AE11D4B1B6803F00203002BF0D17B6869
:102E5C001B6803F00803002B3AD07B689B69002B9E
:102E6C0019D0174B01221A60FFF7DCFB386108E020
:102E7C00FFF7D8FB02463B69D31A022B01D9032377
:102E8C005AE10D4B5B6A03F00203002BF0D00120DA
:102E9C0000F0D8FA1CE00A4B00221A60FFF7C2FBC4
:102EAC0038610FE0FFF7BEFB02463B69D31A022BD9
:102EBC0008D9032340E100BF001002400000424249
:102ECC00800442429E4B5B6A03F00203002BE9D163
:102EDC007B681B6803F00403002B00F0A680002322
:102EEC00FB75974BDB6903F08053002B0DD1944B92
:102EFC00DB69934A43F08053D361914BDB6903F058
:102F0C008053BB60BB680123FB758E4B1B6803F4BD
:102F1C008073002B18D18B4B1B688A4A43F4807347
:102F2C001360FFF77FFB386108E0FFF77BFB02467D
:102F3C003B69D31A642B01D90323FDE0814B1B6839
:102F4C0003F48073002BF0D07B68DB68012B06D177
:102F5C007B4B1B6A7A4A43F0010313622DE07B68BA
:102F6C00DB68002B0CD1764B1B6A754A23F00103EE
:102F7C001362734B1B6A724A23F0040313621CE046
:102F8C007B68DB68052B0CD16D4B1B6A6C4A43F0DC
:102F9C00040313626A4B1B6A694A43F00103136210
:102FAC000BE0674B1B6A664A23F001031362644B08
:102FBC001B6A634A23F0040313627B68DB68002BF3
:102FCC0015D0FFF72FFB38610AE0FFF72BFB024609
:102FDC003B69D31A41F28832934201D90323ABE007
:102FEC00574B1B6A03F00203002BEED014E0FFF7E3
:102FFC0019FB38610AE0FFF715FB02463B69D31A4F
:10300C0041F28832934201D9032395E04C4B1B6A61
:10301C0003F00203002BEED1FB7D012B05D1484BB5
:10302C00DB69474A23F08053D3617B68DB69002B53
:10303C0000F08180424B5B6803F00C03082B61D0DD
:10304C007B68DB69022B46D13F4B00221A60FFF7ED
:10305C00E9FA386108E0FFF7E5FA02463B69D31A52
:10306C00022B01D9032367E0354B1B6803F0007377
:10307C00002BF0D17B681B6AB3F5803F08D1304B35
:10308C005B6823F400327B689B682D4913434B60CB
:10309C002B4B5B6823F474127B68196A7B685B6A40
:1030AC000B43274913434B60274B01221A60FFF750
:1030BC00B9FA386108E0FFF7B5FA02463B69D31A52
:1030CC00022B01D9032337E01D4B1B6803F000735F
:1030DC00002BF0D02FE01C4B00221A60FFF7A2FA55
:1030EC00386108E0FFF79EFA02463B69D31A022BBF
:1030FC0001D9032320E0124B1B6803F00073002B53
:10310C00F0D118E07B68DB69012B01D1012313E0BE
:10311C000B4B5B68FB60FB6803F480327B681B6ABB
:10312C009A4206D1FB6803F470127B685B6A9A4280
:10313C0001D0012300E0002318461837BD4680BD9E
:10314C0000100240007000406000424280B584B024
:10315C0000AF786039607B68002B01D10123D0E08F
:10316C006A4B1B6803F007033A689A4210D9674B05
:10317C001B6823F0070265493B6813430B60634BE4
:10318C001B6803F007033A689A4201D00123B8E0A8
:10319C007B681B6803F00203002B20D07B681B6844
:1031AC0003F00403002B05D0594B5B68584A43F4D9
:1031BC00E06353607B681B6803F00803002B05D0A9
:1031CC00534B5B68524A43F460535360504B5B68FB
:1031DC0023F0F0027B689B684D4913434B607B687E
:1031EC001B6803F00103002B40D07B685B68012B4C
:1031FC0007D1474B1B6803F40033002B15D1012377
:10320C007FE07B685B68022B07D1414B1B6803F0A6
:10321C000073002B09D1012373E03D4B1B6803F0B5
:10322C000203002B01D101236BE0394B5B6823F0C7
:10323C0003027B685B68364913434B60FFF7F2F976
:10324C00F8600AE0FFF7EEF90246FB68D31A41F288
:10325C008832934201D9032353E02D4B5B6803F072
:10326C000C027B685B689B009A42EBD1274B1B6876
:10327C0003F007033A689A4210D2244B1B6823F0E0
:10328C00070222493B6813430B60204B1B6803F079
:10329C0007033A689A4201D0012332E07B681B682D
:1032AC0003F00403002B08D0194B5B6823F4E06295
:1032BC007B68DB68164913434B607B681B6803F023
:1032CC000803002B09D0124B5B6823F460527B6817
:1032DC001B69DB000E4913434B6000F021F80246DA
:1032EC000B4B5B681B0903F00F030A49CB5C22FAFA
:1032FC0003F3094A1360094B1B681846FFF750F992
:10330C00002318461037BD4680BD00BF0020024088
:10331C0000100240386200082C0000203000002011
:10332C0090B48AB000AF2A4B3C1D0FCB84E80F0041
:10333C0040F201233B800023FB610023BB6100238F
:10334C007B6200237B6100233B62224B5B68FB6149
:10335C00FB6903F00C03042B02D0082B03D02DE0E7
:10336C001D4B3B622DE0FB699B0C03F00F0307F137
:10337C002802134413F8243C7B61FB6903F480336B
:10338C00002B13D0134B5B685B0C03F0010307F1AC
:10339C002802134413F8283CBB617B690E4A02FBDC
:1033AC0003F2BB69B2FBF3F37B6204E07B690B4A6B
:1033BC0002FB03F37B627B6A3B6202E0064B3B62DF
:1033CC0000BF3B6A18462837BD4690BC704700BF0B
:1033DC00186200080010024000127A0000093D003B
:1033EC0080B400AF024B1B681846BD4680BC7047CA
:1033FC002C00002080B500AFFFF7F2FF0246054B12
:10340C005B681B0A03F007030349CB5C22FA03F346
:10341C00184680BD001002404862000880B500AF1D
:10342C00FFF7DEFF0246054B5B68DB0A03F0070380
:10343C000349CB5C22FA03F3184680BD001002400E
:10344C004862000880B485B000AF78600A4B1B68F6
:10345C000A4AA2FB03235B0A7A6802FB03F3FB60B4
:10346C0000BFFB685A1EFA60002BF9D100BF00BFE9
:10347C001437BD4680BC70472C000020D34D621021
:10348C0080B586B000AF786000233B610023FB6001
:10349C007B681B6803F00103002B7DD00023FB75B8
:1034AC004F4BDB6903F08053002B0DD14C4BDB6988
:1034BC004B4A43F08053D361494BDB6903F0805393
:1034CC00BB60BB680123FB75464B1B6803F4807320
:1034DC00002B18D1434B1B68424A43F48073136092
:1034EC00FFF7A0F8386108E0FFF79CF802463B694B
:1034FC00D31A642B01D903236DE03A4B1B6803F4F8
:10350C008073002BF0D0364B1B6A03F44073FB60C6
:10351C00FB68002B2ED07B685B6803F44073FA6861
:10352C009A4227D02E4B1B6A23F44073FB602E4B20
:10353C0001221A602C4B00221A60294AFB68136284
:10354C00FB6803F00103002B14D0FFF76BF8386114
:10355C000AE0FFF767F802463B69D31A41F288325A
:10356C00934201D9032336E01D4B1B6A03F002037F
:10357C00002BEED01A4B1B6A23F440727B685B68FD
:10358C00174913430B62FB7D012B05D1144BDB69EF
:10359C00134A23F08053D3617B681B6803F002034A
:1035AC00002B08D00E4B5B6823F440427B689B6871
:1035BC000B4913434B607B681B6803F01003002B13
:1035CC0008D0074B5B6823F480027B68DB680449F6
:1035DC0013434B60002318461837BD4680BD00BF0F
:1035EC0000100240007000404004424290B58DB083
:1035FC0000AF78605A4B07F10C040FCB84E80F0036
:10360C0040F201233B8100237B620023FB620023F9
:10361C003B620023FB610023BB627B68102B0AD04A
:10362C007B68102B00F291807B68012B4CD07B685F
:10363C00022B7CD089E04B4B5B68FB61494B1B68D0
:10364C0003F08073002B00F08280FB699B0C03F06D
:10365C000F0307F13002134413F8243C3B62FB695F
:10366C0003F48033002B18D03E4B5B685B0C03F0EB
:10367C00010307F13002134413F8283C7B62FB6909
:10368C0003F48033002B0DD0374A7B6AB2FBF3F284
:10369C003B6A02FB03F3FB6204E03B6A334A02FB26
:1036AC0003F3FB622F4B5B6803F48003B3F5800FCD
:1036BC0002D1FB6ABB624AE0FB6A5B002C4AA2FBAC
:1036CC0003235B08BB6242E0264B1B6AFB61FB6970
:1036DC0003F44073B3F5807F08D1FB6903F0020358
:1036EC00002B03D04FF40043BB621FE0FB6903F4D3
:1036FC004073B3F5007F09D11A4B5B6A03F00203E8
:10370C00002B03D049F64043BB620FE0FB6903F486
:10371C004073B3F5407F1CD1124B1B6803F400338C
:10372C00002B16D04FF22443BB6212E011E0FFF7DE
:10373C0075FE02460B4B5B689B0B03F003030133D6
:10374C005B00B2FBF3F3BB6204E000BF02E000BF1E
:10375C0000E000BFBB6A18463437BD4690BD00BFC1
:10376C00286200080010024000127A0000093D0097
:10377C00ABAAAAAA80B584B000AF78600023FB6026
:10378C007B68002B01D1012384E07B685B7CDBB27E
:10379C00002B05D17B6800221A747868FEF768FB51
:1037AC007B6802225A74786800F0C8F90346002B33
:1037BC0004D07B6804225A7401236BE0786800F013
:1037CC0081FA0346002B04D07B6804225A7401232F
:1037DC0060E07B681B685A687B681B6822F00702F4
:1037EC005A607B689B68002B05D02C4B1B6B2B4ABB
:1037FC0023F001031363294BDB6A23F460727B68AB
:10380C009B6826491343CB627B685B68B3F1FF3F2F
:10381C0003D07B685B68FB600EE00120FFF7E6FEDF
:10382C00F860FB68002B04D17B6804225A740123D6
:10383C0030E0FB68013BFB607B681B689B6823F0F6
:10384C000F01FB681A0C7B681B680A439A607B6843
:10385C001B68DB681B0C1B04FA6891B27A6812684F
:10386C000B43D360786800F055FA0346002B04D064
:10387C007B6804225A7401230CE07B680022DA7303
:10388C007B6801225A737B6801229A737B68012240
:10389C005A74002318461037BD4680BD006C00409A
:1038AC0090B587B000AFF860B9607A6000237B6197
:1038BC0000233B61FB68002B02D0BB68002B01D1BD
:1038CC00012380E0FB681B7C012B01D102237AE0F1
:1038DC00FB6801221A74FB6802225A747B68002B65
:1038EC0013D1BB681B781A464FF4616303FB02F2D9
:1038FC00BB685B7819460B461B015B1A9B00134493
:10390C00BA68927813447B611EE0BB681B7818463A
:10391C0000F028FA03461A464FF4616303FB02F4E5
:10392C00BB685B78184600F01DFA03461A4613462E
:10393C001B019B1A9B001C44BB689B78184600F02B
:10394C0011FA034623447B617969F86800F053F956
:10395C000346002B07D0FB6804225A74FB68002234
:10396C001A7401232FE0FB681B685A68FB681B68FC
:10397C0022F005025A60F86800F064F938613B697E
:10398C00B3F1FF3F18D03A697B699A4214D23B6974
:10399C0003F5A83303F5C0733B613969F86800F08F
:1039AC006AF90346002B07D0FB6804225A74FB68A3
:1039BC0000221A74012306E0FB6801225A74FB688A
:1039CC0000221A74002318461C37BD4690BD000017
:1039DC0080B588B000AFF860B9607A600023FB61F5
:1039EC000023BB6100237B61FB68002B02D0BB680A
:1039FC00002B01D1012397E0FB681B7C012B01D12B
:103A0C00022391E0FB6801221A74FB6802225A74AB
:103A1C007B68002B0CD1BB68DA78FB68DA73BB6867
:103A2C005A78FB685A73BB689A78FB689A731AE0E9
:103A3C00BB68DB78184600F095F903461A46FB681C
:103A4C00DA73BB685B78184600F08CF903461A46AB
:103A5C00FB685A73BB689B78184600F083F90346E1
:103A6C001A46FB689A73FB68DB7B1846FB68597B2C
:103A7C00FB689B7B1A4600F093F903461A46FB68D9
:103A8C001A73FB681A7BBB681A70F86800F083F82D
:103A9C00F861FB69264AA2FB0323DB0A7B617B6985
:103AAC00182B3AD97B69234AA2FB03231B09224A10
:103ABC0002FB03F3FA69D31AFB61F969F86800F0A9
:103ACC009AF80346002B07D0FB6804225A74FB6853
:103ADC0000221A74012327E0F86800F0B3F8B861EB
:103AEC00BB69B3F1FF3F18D0BA69FB699A4214D293
:103AFC00BB6903F5A83303F5C073BB61B969F868FA
:103B0C0000F0B9F80346002B07D0FB6804225A7466
:103B1C00FB6800221A74012306E0FB6801225A7428
:103B2C00FB6800221A74002318462037BD4680BD5E
:103B3C00C5B3A291ABAAAAAA8051010080B584B0EA
:103B4C0000AF78600023FB607B68002B01D1012360
:103B5C001DE07B681B685A687B681B6822F00802B2
:103B6C005A60FEF75FFDF86009E0FEF75BFD024668
:103B7C00FB68D31AB3F57A7F01D9032307E07B687E
:103B8C001B685B6803F00803002BEED0002318467B
:103B9C001037BD4680BD80B487B000AF786000237D
:103BAC007B8200233B820023FB8100237B617B68AB
:103BBC001B689B697B827B681B68DB69FB817B686C
:103BCC001B689B693B827A8A3B8A9A4208D03B8A63
:103BDC001A047B681B68DB699BB213437B6104E0AE
:103BEC007B8A1A04FB8913437B617B6918461C375B
:103BFC00BD4680BC704780B584B000AF786039603A
:103C0C000023FB73786800F05DF80346002B02D0AC
:103C1C000123FB7311E07B681B683A68120C9A61F4
:103C2C007B681B683A6892B2DA61786800F072F8C7
:103C3C000346002B01D00123FB73FB7B1846103786
:103C4C00BD4680BD80B485B000AF78600023FB8199
:103C5C000023BB817B681B681B6AFB817B681B682C
:103C6C005B6ABB81FB891A04BB8913431846143762
:103C7C00BD4680BC704780B584B000AF78603960B9
:103C8C000023FB73786800F01DF80346002B02D06C
:103C9C000123FB7311E07B681B683A68120C1A62F3
:103CAC007B681B683A6892B25A62786800F032F806
:103CBC000346002B01D00123FB73FB7B1846103706
:103CCC00BD4680BD80B584B000AF78600023FB603A
:103CDC00FEF7A8FCF86009E0FEF7A4FC0246FB68BE
:103CEC00D31AB3F57A7F01D903230FE07B681B68E5
:103CFC005B6803F02003002BEED07B681B685A68CE
:103D0C007B681B6842F010025A600023184610377B
:103D1C00BD4680BD80B584B000AF78600023FB60E9
:103D2C007B681B685A687B681B6822F010025A601B
:103D3C00FEF778FCF86009E0FEF774FC0246FB68BD
:103D4C00D31AB3F57A7F01D9032307E07B681B688C
:103D5C005B6803F02003002BEED0002318461037CD
:103D6C00BD4680BD80B485B000AF0346FB71002317
:103D7C00FB60FB791B09DBB21A4613469B0013440C
:103D8C005B00FB60FB7903F00F03DAB2FB68DBB27C
:103D9C001344DBB218461437BD4680BC7047000094
:103DAC0080B485B000AF78600B46FB701346BB70D7
:103DBC000023BB600023FB607B6803F5FA63BB60E8
:103DCC00FB78022B2DD8FA7813465B001344DB00EA
:103DDC009B1A2C4AA2FB03235A08BB781A44BB68D3
:103DEC001A44BB68013B9B081A44BB68013B26493B
:103DFC00A1FB03135B09D21ABB68013B2249A1FB4F
:103E0C000313DB0913441A1D204BA3FB0213D11A15
:103E1C0049080B4499080B46DB005B1AD31AFB606C
:103E2C0029E0FA7813465B001344DB009B1A154A11
:103E3C00A2FB03235A08BB781A44BB681A44BB681C
:103E4C009B081A44BB681049A1FB03135B09D21AE7
:103E5C00BB680D49A1FB0313DB0913449A1C0B4BE4
:103E6C00A3FB0213D11A49080B4499080B46DB003B
:103E7C005B1AD31AFB60FB68DBB218461437BD46DD
:103E8C0080BC7047398EE3381F85EB51254992244D
:103E9C0080B487B000AFF860B9607A6000237B61B2
:103EAC00074B7B61BB689B007A6913447B617B6920
:103EBC007A6892B21A6000BF1C37BD4680BC70474E
:103ECC00006C004080B485B000AF7860396000238E
:103EDC00FB600023BB60084BFB603B689B00FA68EF
:103EEC001344FB60FB681B689BB2BB60BB68184645
:103EFC001437BD4680BC7047006C004080B582B062
:103F0C0000AF78607B68002B01D1012376E07B68E1
:103F1C005B6A002B08D17B685B68B3F5827F09D0A4
:103F2C007B680022DA6105E07B6800221A617B68FD
:103F3C0000225A617B6800229A627B6893F85130A8
:103F4C00DBB2002B06D17B68002283F85020786806
:103F5C00FDF7E8FF7B68022283F851207B681B6821
:103F6C001A687B681B6822F040021A607B685B68E9
:103F7C0003F482727B689B6803F404431A437B68E6
:103F8C00DB6803F400631A437B681B6903F00203CC
:103F9C001A437B685B6903F001031A437B689B69D6
:103FAC0003F400731A437B68DB6903F038031A438C
:103FBC007B681B6A03F0800342EA03017B689B6AFF
:103FCC0003F400527B681B680A431A607B689B6988
:103FDC001A0C7B681B6802F004025A607B681B6831
:103FEC00DA697B681B6822F40062DA617B68002264
:103FFC005A657B68012283F8512000231846083744
:10400C00BD4680BD80B588B000AFF860B9603B603C
:10401C001346FB800023FB77FB6893F85030012B91
:10402C0001D1022326E1FB68012283F85020FEF720
:10403C00F9FAB861FB88FB82FB6893F85130DBB26C
:10404C00012B02D00223FB770BE1BB68002B02D0C3
:10405C00FB88002B02D10123FB7702E1FB680322D2
:10406C0083F85120FB6800225A65FB68BA681A6312
:10407C00FB68FA889A86FB68FA88DA86FB68002265
:10408C009A63FB6800229A87FB680022DA87FB6838
:10409C0000225A64FB6800221A64FB689B68B3F523
:1040AC00004F0FD1FB681B681A68FB681B6822F075
:1040BC0040021A60FB681B681A68FB681B6842F4B4
:1040CC0080421A60FB681B681B6803F04003402B9E
:1040DC0007D0FB681B681A68FB681B6842F040023B
:1040EC001A60FB68DB68B3F5006F4BD1FB685B684B
:1040FC00002B02D0FB8A012B3ED1FB681B6B1A886C
:10410C00FB681B68DA60FB681B6B9A1CFB681A6304
:10411C00FB68DB8E9BB2013B9AB2FB68DA862BE024
:10412C00FB681B689B6803F00203022B12D1FB682F
:10413C001B6B1A88FB681B68DA60FB681B6B9A1C8C
:10414C00FB681A63FB68DB8E9BB2013B9AB2FB687F
:10415C00DA8611E0FEF766FA0246BB69D31A3A68B2
:10416C009A4203D83B68B3F1FF3F02D13B68002B66
:10417C0002D10323FB7774E0FB68DB8E9BB2002B30
:10418C00CED14CE0FB685B68002B02D0FB8A012B84
:10419C0040D1FB681A6BFB681B680C3312781A70E1
:1041AC00FB681B6B5A1CFB681A63FB68DB8E9BB2AB
:1041BC00013B9AB2FB68DA862CE0FB681B689B68B3
:1041CC0003F00203022B13D1FB681A6BFB681B680C
:1041DC000C3312781A70FB681B6B5A1CFB681A6341
:1041EC00FB68DB8E9BB2013B9AB2FB68DA8611E06E
:1041FC00FEF718FA0246BB69D31A3A689A4203D8FA
:10420C003B68B3F1FF3F02D13B68002B02D1032383
:10421C00FB7726E0FB68DB8E9BB2002BCDD1BA6915
:10422C003968F86800F0B2F80346002B02D0FB683E
:10423C0020225A65FB689B68002B0AD100233B6146
:10424C00FB681B68DB683B61FB681B689B683B6118
:10425C003B69FB685B6D002B02D00123FB7700E010
:10426C0000BFFB68012283F85120FB68002283F811
:10427C005020FB7F18462037BD4680BD80B588B0E6
:10428C0000AFF860B9603B601346FB71FEF7CAF9EA
:10429C000246BB6A9B1A3A681344FB61FEF7C2F9EB
:1042AC00B861394B1B685B011B0DFA6902FB03F308
:1042BC007B6154E03B68B3F1FF3F50D0FEF7B2F99D
:1042CC000246BB69D31AFA699A4202D9FB69002BE0
:1042DC003DD1FB681B685A68FB681B6822F0E00242
:1042EC005A60FB685B68B3F5827F11D1FB689B68F1
:1042FC00B3F5004F04D0FB689B68B3F5806F07D112
:10430C00FB681B681A68FB681B6822F040021A6085
:10431C00FB689B6AB3F5005F0FD1FB681B681A68DA
:10432C00FB681B6822F400521A60FB681B681A6851
:10433C00FB681B6842F400521A60FB68012283F888
:10434C005120FB68002283F85020032317E07B697F
:10435C00002B01D10023FB617B69013B7B61FB6876
:10436C001B689A68BB681340BA689A420CBF012359
:10437C000023DBB21A46FB799A429BD100231846E4
:10438C002037BD4680BD00BF2C00002080B586B014
:10439C0002AFF860B9607A607B680093BB6800225A
:1043AC008021F868FFF76AFF0346002B07D0FB68F3
:1043BC005B6D43F02002FB685A65032300E0002389
:1043CC0018461037BD4680BD80B582B000AF78600E
:1043DC007B68002B01D1012341E07B6893F83D30D1
:1043EC00DBB2002B06D17B68002283F83C20786876
:1043FC00FDF74AFF7B68022283F83D207B681A6830
:10440C007B6804331946104600F0CCFC7B68012213
:10441C0083F846207B68012283F83E207B680122CA
:10442C0083F83F207B68012283F840207B680122BF
:10443C0083F841207B68012283F842207B680122AB
:10444C0083F843207B68012283F844207B68012297
:10445C0083F845207B68012283F83D200023184611
:10446C000837BD4680BD000080B485B000AF7860D1
:10447C007B6893F83D30DBB2012B01D001233AE08D
:10448C007B68022283F83D207B681B68DA687B68B6
:10449C001B6842F00102DA607B681B68184A934281
:1044AC000ED07B681B68B3F1804F09D07B681B680A
:1044BC00144A934204D07B681B68134A934211D16F
:1044CC007B681B689B6803F00703FB60FB68062B8B
:1044DC0010D07B681B681A687B681B6842F001026D
:1044EC001A6007E07B681B681A687B681B6842F0DF
:1044FC0001021A60002318461437BD4680BC704771
:10450C00002C0140000400400008004080B483B03F
:10451C0000AF78607B681B68DA687B681B6822F0E8
:10452C000102DA607B681B681A6A41F211131340AE
:10453C00002B0FD17B681B681A6A40F2444313406E
:10454C00002B07D17B681B681A687B681B6822F0FC
:10455C0001021A607B68012283F83D200023184673
:10456C000C37BD4680BC704780B582B000AF786018
:10457C007B68002B01D1012341E07B6893F83D302F
:10458C00DBB2002B06D17B68002283F83C207868D4
:10459C0000F039F87B68022283F83D207B681A68AA
:1045AC007B6804331946104600F0FCFB7B68012243
:1045BC0083F846207B68012283F83E207B68012229
:1045CC0083F83F207B68012283F840207B6801221E
:1045DC0083F841207B68012283F842207B6801220A
:1045EC0083F843207B68012283F844207B680122F6
:1045FC0083F845207B68012283F83D200023184670
:10460C000837BD4680BD80B483B000AF786000BF72
:10461C000C37BD4680BC704780B584B000AF786065
:10462C0039603B68002B04D17B6893F83E30DBB2D9
:10463C0013E03B68042B04D17B6893F83F30DBB26A
:10464C000BE03B68082B04D17B6893F84030DBB25D
:10465C0003E07B6893F84130DBB2FB733B68002BC3
:10466C0004D17B6893F84230DBB213E03B68042B37
:10467C0004D17B6893F84330DBB20BE03B68082B2A
:10468C0004D17B6893F84430DBB203E07B6893F889
:10469C004530DBB2BB73FB7B012B02D1BB7B012B07
:1046AC0001D00123B3E03B68002B04D17B680222CC
:1046BC0083F83E2013E03B68042B04D17B68022274
:1046CC0083F83F200BE03B68082B04D17B68022267
:1046DC0083F8402003E07B68022283F841203B688A
:1046EC00002B04D17B68022283F8422013E03B6844
:1046FC00042B04D17B68022283F843200BE03B6837
:10470C00082B04D17B68022283F8442003E07B68E9
:10471C00022283F845203B680C2B41D801A252F8A9
:10472C0023F000BF65470008AD470008AD470008FF
:10473C00AD47000877470008AD470008AD470008B3
:10474C00AD47000889470008AD470008AD47000891
:10475C00AD4700089B4700087B681B68DA687B68DC
:10476C001B6842F00202DA601BE07B681B68DA68A7
:10477C007B681B6842F00402DA6012E07B681B68FD
:10478C00DA687B681B6842F00802DA6009E07B6833
:10479C001B68DA687B681B6842F01002DA6000E084
:1047AC0000BF7B681B6801223968184600F0FFFCCB
:1047BC007B681B68184A93420ED07B681B68B3F168
:1047CC00804F09D07B681B68144A934204D07B68E5
:1047DC001B68134A934211D17B681B689B6803F0DA
:1047EC000703BB60BB68062B10D07B681B681A687C
:1047FC007B681B6842F001021A6007E07B681B684B
:10480C001A687B681B6842F001021A600023184684
:10481C001037BD4680BD00BF002C01400004004095
:10482C000008004080B582B000AF78607B681B68E0
:10483C001B6903F00203022B22D17B681B68DB6827
:10484C0003F00203022B1BD17B681B686FF0020282
:10485C001A617B6801221A777B681B689B6903F0DD
:10486C000303002B03D07868FCF780FE05E0786822
:10487C0000F07CFA786800F082FA7B6800221A77E4
:10488C007B681B681B6903F00403042B22D17B6833
:10489C001B68DB6803F00403042B1BD17B681B68CB
:1048AC006FF004021A617B6802221A777B681B681E
:1048BC009B6903F44073002B03D07868FCF756FE19
:1048CC0005E0786800F052FA786800F058FA7B68D6
:1048DC0000221A777B681B681B6903F00803082BFE
:1048EC0022D17B681B68DB6803F00803082B1BD103
:1048FC007B681B686FF008021A617B6804221A77C8
:10490C007B681B68DB6903F00303002B03D078681A
:10491C00FCF72CFE05E0786800F028FA786800F0C7
:10492C002EFA7B6800221A777B681B681B6903F0E0
:10493C001003102B22D17B681B68DB6803F010037B
:10494C00102B1BD17B681B686FF010021A617B68FF
:10495C0008221A777B681B68DB6903F44073002B11
:10496C0003D07868FCF702FE05E0786800F0FEF9E9
:10497C00786800F004FA7B6800221A777B681B6861
:10498C001B6903F00103012B0ED17B681B68DB68EC
:10499C0003F00103012B07D17B681B686FF0010248
:1049AC001A617868FBF7A6FF7B681B681B6903F02C
:1049BC008003802B0ED17B681B68DB6803F08003BF
:1049CC00802B07D17B681B686FF080021A617868B6
:1049DC0000F079FC7B681B681B6903F04003402BDB
:1049EC000ED17B681B68DB6803F04003402B07D1BA
:1049FC007B681B686FF040021A61786800F0C8F998
:104A0C007B681B681B6903F02003202B0ED17B688D
:104A1C001B68DB6803F02003202B07D17B681B6825
:104A2C006FF020021A61786800F044FC00BF083770
:104A3C00BD4680BD80B584B000AFF860B9607A60C7
:104A4C00FB6893F83C30012B01D1022382E0FB6818
:104A5C00012283F83C207B68002B1BD1FB68186873
:104A6C00BB681968BB685A68BB68DB6800F0FCF966
:104A7C00FB681B689A69FB681B6822F00C029A6140
:104A8C00FB681B689969BB689A68FB681B680A43DA
:104A9C009A615AE07B68042B1CD1FB681868BB68D0
:104AAC001968BB685A68BB68DB6800F065FAFB687C
:104ABC001B689A69FB681B6822F440629A61FB6868
:104ACC001B689969BB689B681A02FB681B680A43E0
:104ADC009A613AE07B68082B1BD1FB681868BB68AD
:104AEC001968BB685A68BB68DB6800F0B0FAFB68F1
:104AFC001B68DA69FB681B6822F00C02DA61FB6840
:104B0C001B68D969BB689A68FB681B680A43DA6141
:104B1C001BE0FB681868BB681968BB685A68BB68FF
:104B2C00DB6800F0CFFAFB681B68DA69FB681B686E
:104B3C0022F44062DA61FB681B68D969BB689B6828
:104B4C001A02FB681B680A43DA61FB68002283F8CF
:104B5C003C20002318461037BD4680BD80B584B07C
:104B6C0000AF786039607B6893F83C30012B01D141
:104B7C000223B3E07B68012283F83C207B6802228D
:104B8C0083F83D207B681B689B68FB60FB6823F007
:104B9C007703FB60FB6823F47F43FB607B681B6837
:104BAC00FA689A603B681B68B3F5005F3ED0B3F5BA
:104BBC00005F00F28780B3F5805F00F08580B3F56D
:104BCC00805F7FD8702B1AD0702B7BD8602B50D085
:104BDC00602B77D8502B3CD0502B73D8402B58D00F
:104BEC00402B6FD8302B64D0302B6BD8202B60D05F
:104BFC00202B67D8002B5CD0102B5AD062E07B683E
:104C0C0018683B6899683B685A683B68DB6800F039
:104C1C00AFFA7B681B689B68FB60FB6843F077030B
:104C2C00FB607B681B68FA689A604EE07B681868CA
:104C3C003B6899683B685A683B68DB6800F098FAF7
:104C4C007B681B689A687B681B6842F480429A6098
:104C5C003BE07B6818683B6859683B68DB681A4620
:104C6C0000F05CF97B681B685021184600F066FA6E
:104C7C002BE07B6818683B6859683B68DB681A4610
:104C8C0000F0B6F97B681B686021184600F056FAF4
:104C9C001BE07B6818683B6859683B68DB681A4600
:104CAC0000F03CF97B681B684021184600F046FA7E
:104CBC000BE07B681A683B681B681946104600F0CD
:104CCC003DFA02E000BF00E000BF7B68012283F8E0
:104CDC003D207B68002283F83C20002318461037C7
:104CEC00BD4680BD80B485B000AF786039600023CC
:104CFC00FB603B680C2B31D801A252F823F000BFAB
:104D0C00414D0008694D0008694D0008694D0008C7
:104D1C004B4D0008694D0008694D0008694D0008AD
:104D2C00554D0008694D0008694D0008694D000893
:104D3C005F4D00087B681B685B6BFB600FE07B685A
:104D4C001B689B6BFB600AE07B681B68DB6BFB6082
:104D5C0005E07B681B681B6CFB6000E000BFFB6818
:104D6C0018461437BD4680BC704700BF80B483B072
:104D7C0000AF786000BF0C37BD4680BC704780B474
:104D8C0083B000AF786000BF0C37BD4680BC704765
:104D9C0080B483B000AF786000BF0C37BD4680BCD8
:104DAC007047000080B485B000AF786039607B68D4
:104DBC001B68FB607B68294A93420BD07B68B3F17C
:104DCC00804F07D07B68264A934203D07B68254AE4
:104DDC00934208D1FB6823F07003FB603B685B686F
:104DEC00FA681343FB607B681C4A93420BD07B68C8
:104DFC00B3F1804F07D07B68194A934203D07B688C
:104E0C00184A934208D1FB6823F44073FB603B685B
:104E1C00DB68FA681343FB60FB6823F080023B6895
:104E2C005B691343FB607B68FA681A603B689A689D
:104E3C007B68DA623B681A687B689A627B68074A0F
:104E4C00934203D13B681A697B681A637B68012221
:104E5C005A6100BF1437BD4680BC7047002C01401E
:104E6C00000400400008004080B487B000AFF86038
:104E7C00B9607A603B60FB681B6A23F00102FB6837
:104E8C001A62FB689B697B61FB681B6A3B61FB6870
:104E9C001F4A93420BD0FB68B3F1804F07D0FB68DD
:104EAC001C4A934203D0FB681B4A934201D1012355
:104EBC0000E00023002B08D07B6923F003037B6107
:104ECC007A697B6813437B6103E07B6943F00103E0
:104EDC007B617B6923F0F0037B613B681B01DBB2D8
:104EEC007A6913437B613B6923F00A033B61BB681E
:104EFC0003F00A033A6913433B61FB687A699A61D0
:104F0C00FB683A691A6200BF1C37BD4680BC70470B
:104F1C00002C0140000400400008004080B487B021
:104F2C0000AFF860B9607A60FB681B6A7B61FB6854
:104F3C001B6A23F00102FB681A62FB689B693B61E8
:104F4C003B6923F0F0033B617B681B013A69134317
:104F5C003B617B6923F00A037B617A69BB6813436D
:104F6C007B61FB683A699A61FB687A691A6200BFD7
:104F7C001C37BD4680BC704780B487B000AFF8606A
:104F8C00B9607A603B60FB681B6A23F01002FB6817
:104F9C001A62FB689B697B61FB681B6A3B617B69DE
:104FAC0023F440737B617B681B027A6913437B613A
:104FBC007B6923F470437B613B681B039BB27A696A
:104FCC0013437B613B6923F0A0033B61BB681B016E
:104FDC0003F0A0033A6913433B61FB687A699A6159
:104FEC00FB683A691A6200BF1C37BD4680BC70472B
:104FFC0080B487B000AFF860B9607A60FB681B6A58
:10500C0023F01002FB681A62FB689B697B61FB68EA
:10501C001B6A3B617B6923F470437B617B681B03D8
:10502C007A6913437B613B6923F0A0033B61BB6846
:10503C001B013A6913433B61FB687A699A61FB680F
:10504C003A691A6200BF1C37BD4680BC704780B4F9
:10505C0087B000AFF860B9607A603B60FB681B6A90
:10506C0023F48072FB681A62FB68DB697B61FB6866
:10507C001B6A3B617B6923F003037B617A697B6864
:10508C0013437B617B6923F0F0037B613B681B015D
:10509C00DBB27A6913437B613B6923F400733B6198
:1050AC00BB681B0203F400733A6913433B61FB6852
:1050BC007A69DA61FB683A691A6200BF1C37BD462F
:1050CC0080BC704780B487B000AFF860B9607A607C
:1050DC003B60FB681B6A23F48052FB681A62FB6816
:1050EC00DB697B61FB681B6A3B617B6923F4407362
:1050FC007B617B681B027A6913437B617B6923F4B8
:10510C0070437B613B681B039BB27A6913437B61E1
:10511C003B6923F400533B61BB681B0303F400534E
:10512C003A6913433B61FB687A69DA61FB683A6957
:10513C001A6200BF1C37BD4680BC704780B485B076
:10514C0000AF786039607B689B68FB60FB6823F07C
:10515C007003FB603A68FB68134343F00703FB6082
:10516C007B68FA689A6000BF1437BD4680BC7047F4
:10517C0080B487B000AFF860B9607A603B60FB68C0
:10518C009B687B617B6923F47F437B613B681A02DC
:10519C007B681A43BB6813437A6913437B61FB68D2
:1051AC007A699A6000BF1C37BD4680BC704780B4DA
:1051BC0087B000AFF860B9607A60BB6803F01F037A
:1051CC00012202FA03F37B61FB681A6A7B69DB43F9
:1051DC001A40FB681A62FB681A6ABB6803F01F036B
:1051EC00796801FA03F31A43FB681A6200BF1C3793
:1051FC00BD4680BC7047000080B485B000AF7860BD
:10520C0039607B6893F83C30012B01D1022346E0D6
:10521C007B68012283F83C207B68022283F83D20C6
:10522C007B681B685B68FB607B681B689B68BB606A
:10523C00FB6823F07003FB603B681B68FA68134340
:10524C00FB607B681B68FA685A607B681B68164AAF
:10525C0093420ED07B681B68B3F1804F09D07B68FA
:10526C001B68124A934204D07B681B68104A934215
:10527C000CD1BB6823F08003BB603B685B68BA68E9
:10528C001343BB607B681B68BA689A607B68012219
:10529C0083F83D207B68002283F83C2000231846CD
:1052AC001437BD4680BC7047002C01400004004000
:1052BC000008004080B483B000AF786000BF0C37AA
:1052CC00BD4680BC704780B483B000AF786000BF2F
:1052DC000C37BD4680BC704780B582B000AF78609B
:1052EC007B68002B01D101233FE07B6893F83D30B4
:1052FC00DBB2002B06D17B68002283F83C20786857
:10530C00FDF78AF87B68242283F83D207B681B68B4
:10531C00DA687B681B6822F40052DA60786800F067
:10532C0005F97B681B681A697B681B6822F490423C
:10533C001A617B681B685A697B681B6822F02A0219
:10534C005A617B681B68DA687B681B6842F4005200
:10535C00DA607B6800221A647B68202283F83D2087
:10536C007B68202283F83E20002318460837BD4670
:10537C0080BD80B58AB002AFF860B9603B6013465F
:10538C00FB8000237B61FB6893F83D30DBB2202B64
:10539C007CD1BB68002B02D0FB88002B01D10123F0
:1053AC0075E0FB6893F83C30012B01D102236EE0D1
:1053BC00FB68012283F83C20FB6800221A64FB681E
:1053CC00212283F83D20FDF72DF97861FB68FA88DE
:1053DC009A84FB68FA88DA84FB689B68B3F5805F73
:1053EC0008D1FB681B69002B04D10023FB61BB684F
:1053FC00BB6103E0BB68FB610023BB61FB6800225F
:10540C0083F83C202AE03B6800937B6900228021D2
:10541C00F86800F040F80346002B01D0032336E077
:10542C00FB69002B0BD1BB691B881A46FB681B68F8
:10543C00C2F308025A60BB690233BB6107E0FB6927
:10544C001A78FB681B685A60FB690133FB61FB68C7
:10545C00DB8C9BB2013B9AB2FB68DA84FB68DB8C79
:10546C009BB2002BCFD13B6800937B69002240217B
:10547C00F86800F010F80346002B01D0032306E077
:10548C00FB68202283F83D20002300E0022318460D
:10549C002037BD4680BD80B584B000AFF860B960E0
:1054AC003B601346FB712CE0BB69B3F1FF3F28D086
:1054BC00BB69002B07D0FDF7B5F802463B68D31A41
:1054CC00BA699A421DD2FB681B68DA68FB681B68D4
:1054DC0022F4D072DA60FB681B685A69FB681B689F
:1054EC0022F001025A61FB68202283F83D20FB6800
:1054FC00202283F83E20FB68002283F83C20032303
:10550C000FE0FB681B681A68BB681340BA689A42C4
:10551C000CBF01230023DBB21A46FB799A42C3D09D
:10552C00002318461037BD4680BD000080B584B0FE
:10553C0000AF78607B681B681B6923F440517B6863
:10554C00DA687B681B680A431A617B689A687B6817
:10555C001B691A437B685B691343BB607B681B68E0
:10556C00DB6823F4B05323F00C037A681268B96833
:10557C000B43D3607B681B685B6923F440717B68C9
:10558C009A697B681B680A435A617B681B682C4AC2
:10559C00934203D1FDF742FFF86002E0FDF72AFFCA
:1055AC00F860FA6813469B0013449A001A447B680F
:1055BC005B689B00B2FBF3F3224AA2FB03235B095B
:1055CC001901FA6813469B0013449A001A447B682D
:1055DC005B689B00B2FBF3F21A4BA3FB02035B0963
:1055EC00642000FB03F3D31A1B013233154AA2FBD0
:1055FC0003235B0903F0F0031944FA6813469B007C
:10560C0013449A001A447B685B689B00B2FBF3F26C
:10561C000C4BA3FB02035B09642000FB03F3D31ABE
:10562C001B013233074AA2FB03235B0903F00F0271
:10563C007B681B680A449A6000BF1037BD4680BD6A
:10564C00003801401F85EB51014B1868704700BFB3
:10565C003800002070B500260C4D0D4C641BA410B6
:10566C00A64209D100F05CFC00260A4D0A4C641BD2
:10567C00A410A64205D170BD55F8043B98470136DD
:10568C00EEE755F8043B98470136F2E784620008D0
:10569C0084620008846200088862000803460244A1
:1056AC00934200D1704703F8011BF9E70EB46FF079
:1056BC00004100B59CB01DAB02900690079104917F
:1056CC000848094953F8042B0591006802A9019375
:1056DC0000F068F80022029B1A701CB05DF804EB15
:1056EC0003B07047380000200802FFFF2DE9F04797
:1056FC008E6882469E420C4690461F4638D88A8950
:10570C0012F4906F32D0256809690133A5EB0109B9
:10571C0065694B4405EB450505EBD5756D109D4250
:10572C0038BF1D46530531D5294600F053FB0646BC
:10573C0050B90C234FF0FF30CAF80030A38943F066
:10574C004003A381BDE8F0874A46216900F0CEFAF8
:10575C00A38923F4906343F08003A38126614E4414
:10576C0026603E466561A5EB0905A560BE4200D9E1
:10577C003E4632464146206800F0C6FAA3682268CD
:10578C009B1B32440020A3602260DBE72A4600F01A
:10579C007BFB06460028E1D15046216900F0CEFA89
:1057AC00C7E700002DE9F04F98468B8907461B068A
:1057BC000D4614469DB00ED50B6963B9402100F01F
:1057CC0009FB2860286120B90C233B604FF0FF30A7
:1057DC00D1E040236B610023099320238DF82930FD
:1057EC0030234FF00109CDF80C80DFF8A4818DF83F
:1057FC002A3023469A4613F8012B0AB1252AF9D1EF
:10580C00BAEB040B0BD05B46224629463846FFF711
:10581C006DFF013000F0AA80099A5A4409929AF857
:10582C000030002B00F0A28000234FF0FF32CDE9B6
:10583C0005230AF1010A049307938DF853301A9348
:10584C005446052214F8011B514800F041FA049A01
:10585C00D8B9D00644BF20238DF85330110744BF6C
:10586C002B238DF853309AF800302A2B15D0544640
:10587C0000204FF00A0C079A214611F8013B303BEF
:10588C00092B4ED9B0B1079214E0A0EB080309FA2A
:10589C0003F31343A2460493D2E7039B191D1B6821
:1058AC000391002BBBBF5B4242F0020207930793AC
:1058BC00B8BF049223782E2B0CD163782A2B35D1C8
:1058CC00039B02341A1D1B680392002BB8BF4FF0C8
:1058DC00FF330593DFF8C8A003225046217800F06F
:1058EC00F7F940B14023A0EB0A0003FA00F0049B47
:1058FC0001340343049314F8011B062225488DF848
:10590C00281000F0E5F9002838D0234B1BBB039B73
:10591C00073323F0070308330393099B334409939C
:10592C0067E70C4601200CFB0232A5E700234FF081
:10593C000A0C194601340593204610F8012B303A15
:10594C00092A03D9002BC5D00591C3E704460123CE
:10595C000CFB0121F0E703AB00932A4638460F4BB2
:10596C0004A9AFF30080421C0646D6D1AB895B0676
:10597C003FF52CAF09981DB0BDE8F08F03AB009339
:10598C002A463846054B04A900F07CF8EBE700BF2B
:10599C00506200085A62000800000000F956000826
:1059AC00566200082DE9F047164699468A680B693D
:1059BC0007469342B8BF1346336091F843200C4618
:1059CC00DDF820800AB1013333602368990642BFA9
:1059DC00336802333360256815F0060506D104F1EF
:1059EC00190AE36832689B1AAB4228DC94F843200E
:1059FC00131E226818BF012392062DD4494638463F
:105A0C0004F14302C047013020D02368E56803F05D
:105A1C000603042B18BF002532684FF00006A3685C
:105A2C0008BFAD1A226908BF25EAE5759342C4BFC9
:105A3C009B1AED181A34B5421AD1002008E0012344
:105A4C00524649463846C047013003D14FF0FF302B
:105A5C00BDE8F0870135C4E73020E11881F8430038
:105A6C005A1C94F845102244023382F84310C5E7BF
:105A7C000123224649463846C0470130E6D001365C
:105A8C00D9E700002DE9FF470C46277E9146782F79
:105A9C0080469A460C9904F1430207D8622F0AD823
:105AAC00002F00F0D980582F00F0A48004F142069A
:105ABC0084F842703AE0A7F16303152BF6D801A0E5
:105ACC0050F823F0295B00083D5B0008B95A000828
