:020000040800F2
:10000000005000202D2200089D1E0008A31E00089D
:10001000A91E0008AF1E0008B51E00080000000061
:10002000000000000000000000000000BB1E0008EF
:10003000C71E000800000000D31E0008DF1E0008D5
:100040007522000875220008752200087522000834
:100050007522000875220008752200087522000824
:100060007522000875220008EB1E000875220008A2
:100070007522000875220008752200087522000804
:1000800075220008752200087522000875220008F4
:10009000752200087522000875220008F91E000864
:1000A00075220008752200087522000875220008D4
:1000B000091F000875220008752200087522000833
:1000C00075220008752200087522000875220008B4
:1000D00075220008752200087522000875220008A4
:1000E0007522000875220008752200080000000033
:1000F0000000000000000000000000000000000000
:0C01000000000000000000005FF808F1A3
:10010C0010B5054C237833B9044B13B10448AFF345
:10011C0000800123237010BD980000200000000017
:10012C00F455000808B5034B1BB103490348AFF362
:10013C00008008BD000000009C000020F455000861
:10014C00034613F8012B002AFBD1181A013870470B
:10015C0080B588B000AF07F1100300221A605A6016
:10016C009A60DA604A4B9B69494A43F010039361E9
:10017C00474B9B6903F01003FB60FB68444B9B6986
:10018C00434A43F020039361414B9B6903F02003E6
:10019C00BB60BB683E4B9B693D4A43F004039361D3
:1001AC003B4B9B6903F004037B607B68384B9B697A
:1001BC00374A43F008039361354B9B6903F00803FE
:1001CC003B603B68002245F20331324802F0DBFB16
:1001DC0000224FF41061304802F0D5FB48F2FE03C8
:1001EC003B6100237B610223BB6107F110031946BD
:1001FC00294802F02DFA45F203333B6101237B6160
:10020C000223BB610223FB6107F11003194621484D
:10021C0002F01EFA4FF480733B6101237B610223D1
:10022C00BB610223FB6107F1100319461A4802F067
:10023C000FFA4FF400633B6101237B610023BB6128
:10024C000223FB6107F110031946134802F000FA70
:10025C0030233B61114B7B610023BB6107F1100321
:10026C0019460C4802F0F4F9002200210A2002F091
:10027C009CF90A2002F0B5F900220021172002F0A7
:10028C0094F9172002F0ADF900BF2037BD4680BDB0
:10029C0000100240000C0140000801400000111049
:1002AC0080B582B000AF01F0E1FF00F06FF8FFF70E
:1002BC004FFF01F0D7FC01F043FD01F065FE01F0AA
:1002CC00D3FE01F0FBFE00F0BBF800F0EBFD01F0FB
:1002DC00ADF900F0D9FD00F0E5FD264803F0B6FFBE
:1002EC004FF4FA6002F024F800F0C4F800F0F6FEC7
:1002FC000346FB71FB79062B08D100F047FC1E4B23
:10030C001B889BB2184600F0BBF932E0FB79072B37
:10031C0005D11A4B01221A7000F070F929E0FB7913
:10032C00002B11D0164B1B78DBB2FA799A4203D111
:10033C00134B00221A7007E0114B1B78DBB2002B19
:10034C0002D10F4AFB7913700E4B1B78DBB2002BDA
:10035C0005D00D4B00221A7000F0A4FE04E0084BEF
:10036C0000221A7000F09EFD00F084F8642001F069
:10037C00DFFFBBE758010020CE000020D100002099
:10038C00D0000020CC0000200000002080B594B0EC
:10039C0000AF07F1280328220021184604F0E2FCE4
:1003AC0007F1140300221A605A609A60DA601A612D
:1003BC003B1D00221A605A609A60DA600A23BB6205
:1003CC000123BB631023FB6301233B6402237B6487
:1003DC000023BB644FF46013FB6407F12803184639
:1003EC0002F026FB0346002B01D001F0ADFA0F23DF
:1003FC007B610223BB610023FB614FF480633B6292
:10040C0000237B6207F114030221184602F090FDD1
:10041C000346002B01D001F097FA01237B604FF4C7
:10042C000073BB603B1D184602F01CFF0346002BFB
:10043C0001D001F089FA00BF5037BD4680BD0000E5
:10044C0080B500AF084B01221A700A2002F0D7F8D1
:10045C00172002F0D4F84FF0FF331F220349044851
:10046C0004F0EBFA00BF80BDDD0000200C56000844
:10047C00E401002080B500AF0E4B00221A700E4B29
:10048C0010225A610C4B20225A610A2002F0D1F83A
:10049C00172002F0CEF80A2002F0A3F8172002F081
:1004AC00A0F84FF0FF331B220449054804F0C5FAAD
:1004BC0000BF80BDDD000020000401402C56000868
:1004CC00E401002080B584B000AF0346FB714FF00F
:1004DC00FF331F221649174804F0AFFA02233B7270
:1004EC00154B1B889BB2DBB27B720023BB72134B88
:1004FC001B78DBB2FB72FB793B7303237B730D23FD
:10050C00BB730A23FB7307F108014FF0FF3308227A
:10051C00084804F092FA07F108014FF0FF33082263
:10052C00074804F08AFA00BF1037BD4680BD00BFF3
:10053C0048560008E4010020CE000020D000002026
:10054C00A001002080B582B000AF0346FB71FB799F
:10055C00013B042B43D801A252F823F07D0500087F
:10056C008F050008A1050008BD050008D905000885
:10057C00FB791D4A1278D2B21146184600F020FAC7
:10058C002DE0FB79194A1278D2B21146184600F0C8
:10059C0017FA24E001221221032001F07FFAFB79E3
:1005AC00134A1278D2B21146184600F009FA16E036
:1005BC0001221321032001F071FAFB790D4A127804
:1005CC00D2B21146184600F0FBF908E0FB790A4A52
:1005DC001278D2B21146184600F0F2F900BF00BFF3
:1005EC000837BD4680BD00BF01000020020000207E
:1005FC0003000020040000200500002080B582B01C
:10060C0000AF00F0C3FA1C4B00221A702BE000F074
:10061C0065FD0346FB71FB79072B11D1174B1B783A
:10062C00DBB20133DAB2154B1A70144B1B78DBB208
:10063C00052B18D9114B00221A7000F0A7FA17E0FD
:10064C00FB79012B06D10D4B1B78DBB2184600F061
:10065C0087F808E0FB79022B05D1084B1B78DBB23D
:10066C00184600F015F9054B1B78DBB2002BCED1E8
:10067C000837BD4680BD00BF00000020D10000201F
:10068C0080B584B000AF0346FB80FB88FB73FB880E
:10069C001B0A9BB2BB73FB7B1946062000F00AF8C1
:1006AC00BB7B1946072000F005F800BF1037BD468C
:1006BC0080BD000080B582B000AF03460A46FB71D6
:1006CC001346BB71FB79013B062B42D801A252F8B1
:1006DC0023F000BFFD0600080B07000819070008EF
:1006EC0027070008350700084307000851070008D2
:1006FC00BB791A460121194803F0BCFA29E0BB79F1
:10070C001A460221154803F0B5FA22E0BB791A46C5
:10071C000321124803F0AEFA1BE0BB791A46042100
:10072C000E4803F0A7FA14E0BB791A4605210B48D2
:10073C0003F0A0FA0DE0BB791A460621074803F036
:10074C0099FA06E0BB791A460721044803F092FA9D
:10075C0000BF00BF0837BD4680BD00BFEC000020C5
:10076C0080B582B000AF0346FB71FB79002B75D0CE
:10077C00FB79013B042B7CD801A252F823F000BF7B
:10078C00A1070008C9070008F107000819080008AC
:10079C0041080008394B1B78DBB2622B60D8374B11
:1007AC001B78DBB20133DAB2344B1A70334B1B7843
:1007BC00DBB219460120FFF77DFF51E0304B1B786F
:1007CC00DBB2622B4ED82E4B1B78DBB20133DAB284
:1007DC002B4B1A702A4B1B78DBB219460220FFF701
:1007EC0069FF3FE0274B1B78DBB2622B3CD8254BD3
:1007FC001B78DBB20133DAB2224B1A70214B1B7817
:10080C00DBB219460320FFF755FF2DE01E4B1B787A
:10081C00DBB2622B2AD81C4B1B78DBB20133DAB269
:10082C00194B1A70184B1B78DBB219460420FFF7D2
:10083C0041FF1BE0154B1B78DBB2622B18D8134B16
:10084C001B78DBB20133DAB2104B1A700F4B1B78EA
:10085C00DBB219460520FFF72DFF09E000BF08E0C9
:10086C0000BF06E000BF04E000BF02E000BF00E0F4
:10087C0000BF00BF0837BD4680BD00BF010000208F
:10088C0002000020030000200400002005000020CE
:10089C0080B582B000AF0346FB71FB79002B75D09D
:1008AC00FB79013B042B7CD801A252F823F000BF4A
:1008BC00D1080008F90800082109000849090008B6
:1008CC0071090008394B1B78DBB2002B60D0374B19
:1008DC001B78DBB2013BDAB2344B1A70334B1B780A
:1008EC00DBB219460120FFF7E5FE51E0304B1B78D7
:1008FC00DBB2002B4ED02E4B1B78DBB2013BDAB2B5
:10090C002B4B1A702A4B1B78DBB219460220FFF7CF
:10091C00D1FE3FE0274B1B78DBB2002B3CD0254BA4
:10092C001B78DBB2013BDAB2224B1A70214B1B78DD
:10093C00DBB219460320FFF7BDFE2DE01E4B1B78E2
:10094C00DBB2002B2AD01C4B1B78DBB2013BDAB29A
:10095C00194B1A70184B1B78DBB219460420FFF7A1
:10096C00A9FE1BE0154B1B78DBB2002B18D0134BE8
:10097C001B78DBB2013BDAB2104B1A700F4B1B78B1
:10098C00DBB219460520FFF795FE09E000BF08E031
:10099C0000BF06E000BF04E000BF02E000BF00E0C3
:1009AC0000BF00BF0837BD4680BD00BF010000205E
:1009BC00020000200300002004000020050000209D
:1009CC0080B582B000AF7860396001F057F800F064
:1009DC00F3FF3B68092B04DC3968012001F0B8F8FF
:1009EC0009E03B68092B06DD3B68632B03DC3968A7
:1009FC00022001F0ADF87B68DBB20122194603201E
:100A0C0001F04CF800BF0837BD4680BD80B582B000
:100A1C0000AF78607B681B68B3F1804F62D1334BB9
:100A2C001B680133314A1360314B1B680133304A68
:100A3C001360304B1B6801332E4A13602E4B1B681E
:100A4C0001332D4A13602D4B1B6801332B4A136065
:100A5C00264B19682A4B83FB01239A10CB17D21A09
:100A6C0013469B0013445B00CA1A002A0DD1254B78
:100A7C001B78DBB2002B08D0234B00221A70214BC1
:100A8C001B78DBB21846FFF75DFD184B1B68632B18
:100A9C0004DD164B00221A6000F01CF9144B1B6885
:100AAC00312B04DD124B00221A6000F077F9134B46
:100ABC001B68132B04DD114B00221A6000F074F933
:100ACC000C4B1B681D2B04DD0A4B00221A6000F036
:100ADC008DF9094B1B68272B04DD074B00221A608C
:100AEC0000F098F900BF0837BD4680BDB400002067
:100AFC00C4000020B8000020C0000020BC00002072
:100B0C0067666666D10000200000002080B485B0C6
:100B1C0000AF0346FB710023FB73FB79013B042BF5
:100B2C0020D801A252F823F0490B0008510B000801
:100B3C00590B0008610B0008690B00080E4B1B7861
:100B4C00FB7312E00D4B1B78FB730EE00C4B1B7808
:100B5C00FB730AE00B4B1B78FB7306E00A4B1B780C
:100B6C00FB7302E00A23FB7300BFFB7B18461437B0
:100B7C00BD4680BC704700BF010000200200002071
:100B8C0003000020040000200500002080B500AF09
:100B9C0000F088F9114B00221A70114B00221A80B8
:100BAC00104B01221A70104B00221A700F4B0022AE
:100BBC001A7000F04FFF00F0FFFE0D4B00221A6080
:100BCC000C4B00221A600C4B00221A600B4B0022BB
:100BDC001A600B4B00221A6000BF80BDD4000020AD
:100BEC00CE00002000000020CC000020D00000200F
:100BFC00B4000020C4000020B8000020C000002079
:100C0C00BC00002080B58AB000AF2B4B1B78DBB248
:100C1C00002B4CD0294B1B78DBB20133DAB2274BBB
:100C2C001A70264B1B78DBB21A463B1D244918461A
:100C3C0004F0A0F83B1D1846FFF782FA03469AB25F
:100C4C00391D4FF0FF331F4803F0F7FE1E4B1B7886
:100C5C00DBB21846FFF75AFF034687F82730174BCD
:100C6C001B78DBB297F827209A421AD8134B002234
:100C7C001A704FF0FF3314221449124803F0DDFEB2
:100C8C00134B1B889BB2013B9AB2114B1A80104B31
:100C9C001B889BB2002B04D10D4B00221A80FFF74E
:100CAC0075FF0B4B1B889BB21846FFF7E9FC00BF86
:100CBC002837BD4680BD00BFD4000020DA000020DC
:100CCC0068560008E4010020D0000020845600087B
:100CDC00CE00002080B58AB000AF4FF0FF330B225E
:100CEC002649274803F0A9FE264B1B889BB21A46BF
:100CFC00254B1B78DBB2381D244904F03BF83B1D17
:100D0C001846FFF71DFA03469AB2391D4FF0FF3310
:100D1C001B4803F092FEFFF775FF1D4B1B68013358
:100D2C001B4A13601A4B1B68042B23DD00F03CFE9E
:100D3C00174B00221A600020FFF7C4FB154B1B78E1
:100D4C00DBB2002B08D0134B1B78DBB21846FFF735
:100D5C00B9FB104B00221A700F4B1B78DBB2002B27
:100D6C0008D00D4B1B78DBB21846FFF7ABFB0A4BD8
:100D7C0000221A7000BF2837BD4680BD9C56000863
:100D8C00E4010020CE000020D0000020A85600086E
:100D9C00C8000020DC000020DB00002080B400AF85
:100DAC0000BFBD4680BC704780B500AF0C4B1B78B4
:100DBC00DBB2002B07D00B4B1B889BB201339AB2D2
:100DCC00084B1A8002E0074B00221A80064B1B7856
:100DDC00DBB2002B01D000F095FA00BF80BD00BF44
:100DEC00D6000020D80000200000002080B500AF05
:100DFC00064B1B889BB21846FFF742FC4FF4006170
:100E0C00034801F0D8FD00BF80BD00BFCE0000201C
:100E1C000008014080B500AF174B1B78DBB2002BEC
:100E2C0025D0164B1B78DBB2002B14BF01230023FB
:100E3C00DBB283F00103DBB203F00103DAB20F4B38
:100E4C001A700E4B1B78DBB2002B07D00C4B1B78A7
:100E5C00DBB2002B02D000F007FE0AE000F0FAFD36
:100E6C00084B1B889BB2184600F022FA01E000F0F8
:100E7C00F1FD00BF80BD00BFCC000020D5000020DC
:100E8C00D2000020CE00002080B500AF00F08CFD19
:100E9C00642001F04DFA052000F05BFD00F0EEFD42
:100EAC0000BF80BD80B58EB000AF3B4629491846C7
:100EBC0003F060FF3B461846FFF742F903469AB22F
:100ECC0039464FF0FF33244803F0B7FD234B1B7812
:100EDC00DBB2002B01D0FFF7B3FA0022012120482E
:100EEC0001F051FD002202211D4801F04CFD0022B1
:100EFC004FF480711B4801F046FD00224FF48071C5
:100F0C00174801F040FD00224FF40071144801F025
:100F1C003AFD00224FF48051114801F034FD0F4B83
:100F2C0000221A70104B1B78DBB2002B0ED0002362
:100F3C007B6300237B6303E000BF7B6B01337B632C
:100F4C007B6B0A4A9342F7DDFFF794FA00BF383700
:100F5C00BD4680BDCC560008E4010020D200002024
:100F6C00000C014000080140DD0000207F841E00C1
:100F7C0080B590B000AF0346FB71434B1B78DBB2DE
:100F8C00FA799A427BD0FFF78DFFFFF759FAFA797D
:100F9C0007F108033D49184603F0ECFE07F108037E
:100FAC001846FFF7CDF803469AB207F108014FF047
:100FBC00FF33374803F041FDFB79013B042B43D849
:100FCC0001A252F823F000BFE90F0008FB0F000844
:100FDC000D10000821100008411000080122012109
:100FEC002C4801F0D0FC284B01221A7032E001226F
:100FFC000221284801F0C7FC234B02221A7029E079
:10100C0001224FF48071244801F0BDFC1E4B0322D9
:10101C001A701FE001224FF480711E4801F0B3FCDE
:10102C0001224FF480511B4801F0ADFC164B0422F9
:10103C001A700FE001224FF40071164801F0A3FC66
:10104C00114B05221A7005E0FFF72CFF0E4B002206
:10105C001A7000BF114B1B78DBB2002B10D0002391
:10106C00FB630023FB6303E000BFFB6B0133FB63FB
:10107C00FB6B0B4A9342F7DDFFF7FCF900E000BF76
:10108C004037BD4680BD00BFD2000020E8560008A6
:10109C00E4010020000C014000080140DD000020AC
:1010AC007F841E0080B500AF094B1B78DBB218465D
:1010BC00FFF75EFF074B1B78DBB2002B03D0064B10
:1010CC0001221A7002E0044B00221A7000BF80BD8E
:1010DC00D0000020D2000020D400002080B500AF4A
:1010EC000821684801F038FC0346002B13D05A2025
:1010FC0001F01EF900BF0821624801F02DFC0346E7
:10110C00002BF8D14FF0FF3312225F495F4803F0F8
:10111C0094FC0123B3E010215A4801F01DFC034656
:10112C00002B13D05A2001F003F900BF10215548B1
:10113C0001F012FC0346002BF8D14FF0FF331222C2
:10114C005349524803F079FC022398E020214D4882
:10115C0001F002FC0346002B13D05A2001F0E8F8F2
:10116C0000BF2021474801F0F7FB0346002BF8D1C4
:10117C004FF0FF3312224749444803F05EFC03232F
:10118C007DE040213F4801F0E7FB0346002B13D0E4
:10119C005A2001F0CDF800BF40213A4801F0DCFBA9
:1011AC000346002BF8D14FF0FF3312223A4937484F
:1011BC0003F043FC042362E08021324801F0CCFBB5
:1011CC000346002B22D05A2001F0B2F8334B0122F7
:1011DC001A7008E0324B1B889BB23B2B03D9FFF7EC
:1011EC00D5FC00234BE08021264801F0B5FB0346DB
:1011FC00002BEFD1294B00221A704FF0FF33122233
:10120C002849224803F019FC052338E04FF400412B
:10121C001C4801F0A1FB0346002B14D05A2001F00E
:10122C0087F800BF4FF40041164801F095FB0346C8
:10123C00002BF7D14FF0FF331E221B49134803F04C
:10124C00FCFB06231BE004210E4801F085FB034642
:10125C00002B13D05A2001F06BF800BF0421094871
:10126C0001F07AFB0346002BF8D14FF0FF33162226
:10127C000E49064803F0E1FB072300E00023184663
:10128C0080BD00BF0008014008570008E4010020A1
:10129C001C5700083057000844570008D60000209F
:1012AC00D8000020585700086C5700088C570008CD
:1012BC0080B582B000AF786000F0D6FB052000F05E
:1012CC0048FB00F079FB00F0D9FB00F075FB7B6864
:1012DC00092B04DC7968012000F03AFC0EE07B68F5
:1012EC00092B07DD7B68632B04DC7968022000F096
:1012FC002FFC03E07968032000F02AFC00BF0837BC
:10130C00BD4680BD80B500AF00F056FB00F0B6FBCB
:10131C0000F052FB384B1B78DBB2032B4AD801A2EE
:10132C0052F823F0411300086113000881130008E0
:10133C00A113000800220A21012000F0AFFB0022BB
:10134C000F21022000F0AAFB00220F21032000F045
:10135C00A5FB3FE000220F21012000F09FFB0022A3
:10136C000A21022000F09AFB00220F21032000F03A
:10137C0095FB2FE000220F21012000F08FFB0022B3
:10138C000F21022000F08AFB00220A21032000F02A
:10139C0085FB1FE000220F21012000F07FFB0022C3
:1013AC000A21022000F07AFB00220F21032000F01A
:1013BC0075FB0FE000220A21012000F06FFB0022D8
:1013CC000A21022000F06AFB00220A21032000F00F
:1013DC0065FB00BF084B1B78DBB2022B03D9064B15
:1013EC0000221A7006E0044B1B78DBB20133DAB230
:1013FC00014B1A7000BF80BDD300002080B594B0A3
:10140C0000AF384B1B78DBB21A4607F1280336497C
:10141C00184603F0AFFC07F128031846FEF790FEC0
:10142C0003469AB207F128014FF0FF332F4803F01F
:10143C0004FB2C4B1B78DBB29AB22D4B1B889BB256
:10144C0013449AB22A4B1A802A4B00221A60254B5D
:10145C001B78DAB2284B1B78DBB21344DAB2264B7A
:10146C001A70234B1B889BB240F2E632934203D98D
:10147C001F4B40F2E7321A8000F0ECFA1C4B1B8831
:10148C009BB21846FFF714FF1C4B00221A70184B26
:10149C001B889BB21A461A4B1B689A4209DB194BE4
:1014AC0001221A704FF0FF33192217490F4803F02D
:1014BC00C4FA0F4B1B889BB21A463B1D13491846A6
:1014CC0003F058FC3B1D1846FEF73AFE03469AB251
:1014DC00391D4FF0FF33054803F0AFFA00BF50370A
:1014EC00BD4680BD06000020A4570008E401002082
:1014FC00CE000020C8000020DB00002000000020EF
:10150C0008000020CC000020BC570008D857000869
:10151C0080B58AB000AF2C4B1B78DBB21A463B4629
:10152C002A49184603F026FC3B461846FEF708FEEF
:10153C0003469AB239464FF0FF33254803F07DFA43
:10154C00214B1B78DBB29AB2224B1B889BB2134403
:10155C009AB2204B1A80204B00221A601A4B1B782F
:10156C00DAB21E4B1B78DBB21344DAB21B4B1A7087
:10157C00184B1B889BB240F2E632934203D9154BB1
:10158C0040F2E7321A80164B00221A7000F062FA11
:10159C00104B1B889BB21846FFF78AFE0D4B1B881D
:1015AC009BB21A460F4B1B689A4209DB0E4B012269
:1015BC001A704FF0FF3319220C49054803F03DFA1D
:1015CC0000BF2837BD4680BD07000020A457000887
:1015DC00E4010020CE000020C8000020DC00002028
:1015EC000000002008000020CC000020BC570008A0
:1015FC0080B582B000AF06210B4802F055FB0346C4
:10160C00FB710721084802F04FFB0346BB71BB7905
:10161C001B021AB2FB791BB213431BB2BB80BB88F3
:10162C0018460837BD4680BDEC00002080B58AB056
:10163C0000AF0121904802F037FB0346DAB28F4B22
:10164C001A7002218C4802F02FFB0346DAB28C4B45
:10165C001A700321884802F027FB0346DAB2894B43
:10166C001A700421844802F01FFB0346DAB2864B41
:10167C001A700521804802F017FB0346DAB2834B3F
:10168C001A70FFF7B5FF03461A46814B1A80804B40
:10169C001B889BB2012B0CD97E4B01221A707E4BFE
:1016AC0000221A707D4B00221A707D4B00221A709A
:1016BC0001E0FFF76BFA714B1B78DBB21A463B1D4E
:1016CC007849184603F056FB3B1D1846FEF738FDCB
:1016DC0003469AB2391D4FF0FF33734803F0ADF94E
:1016EC00674B1B78DBB21A463B1D7049184603F05A
:1016FC0041FB3B1D1846FEF723FD03469AB2391DEC
:10170C004FF0FF33684803F098F95E4B1B78DBB25F
:10171C001A463B1D6649184603F02CFB3B1D184628
:10172C00FEF70EFD03469AB2391D4FF0FF335E48AB
:10173C0003F083F9544B1B78DBB21A463B1D5D4911
:10174C00184603F017FB3B1D1846FEF7F9FC034641
:10175C009AB2391D4FF0FF33534803F06EF94B4BDF
:10176C001B78DBB21A463B1D5349184603F002FBAB
:10177C003B1D1846FEF7E4FC03469AB2391D4FF0A8
:10178C00FF33494803F059F9414B1B889BB21A4669
:10179C003B1D4A49184603F0EDFA3B1D1846FEF76F
:1017AC00CFFC03469AB2391D4FF0FF333E4803F08D
:1017BC0044F9324B1B78DBB2002B13D0304B1B7827
:1017CC00DBB2002B0ED02F4B1B78DBB2002B09D0D9
:1017DC002D4B1B78DBB2002B04D02C4B1B78DBB2CF
:1017EC00002B40D1364B1B78DBB21A460121224824
:1017FC0002F040FA324B1B78DBB21A4602211E482B
:10180C0002F038FA2E4B1B78DBB21A4603211A4829
:10181C0002F030FA2A4B1B78DBB21A460421164828
:10182C0002F028FA264B1B78DBB21A460521124827
:10183C0002F020FA224B1B78DAB2104B1A70204BB4
:10184C001B78DAB20E4B1A701D4B1B78DAB20D4BAB
:10185C001A701B4B1B78DAB20B4B1A70184B1B7897
:10186C00DAB20A4B1A704FF4967000F061FD00BFAB
:10187C002837BD4680BD00BFEC00002001000020D1
:10188C0002000020030000200400002005000020BE
:10189C00CE000020CC00002000000020D40000204E
:1018AC00DA000020F0570008E4010020105800086E
:1018BC00305800085058000870580008905800081C
:1018CC000C00002080B596B000AF0346FB80FB886F
:1018DC00102B15D107F108031849184603F04AFAE2
:1018EC0007F108031846FEF72BFC03469AB207F1E2
:1018FC0008014FF0FF33124803F09FF8FFF708FE82
:10190C00FB88202B15D107F108030E49184603F06C
:10191C0031FA07F108031846FEF712FC03469AB297
:10192C0007F108014FF0FF33054803F086F8FFF785
:10193C0065FD00BF5837BD4680BD00BFAC580008E0
:10194C00E4010020E458000880B400AF72B600BF78
:10195C00FEE780B582B000AF0346FB7100F084F85F
:10196C0000F022F800F076F807210B2000F048F880
:10197C00FB79184600F006F800F01EF800BF083797
:10198C00BD4680BD80B582B000AF0346FB71FB79CC
:10199C000F2B05D8FB7919460A2000F031F800E02E
:1019AC0000BF0837BD4680BD80B500AF00210F20B9
:1019BC0000F026F800BF80BD80B582B000AF0023D8
:1019CC00FB710E4B1B78FF2B01D10F23FB710023F6
:1019DC003B600BE03B68DBB20133DBB2FA791146BA
:1019EC00184600F00DF83B6801333B603B68072B51
:1019FC00F0DD00BF00BF0837BD4680BDDE00002013
:101A0C0080B582B000AF03460A46FB711346BB712A
:101A1C0000224FF480410D4800F0B5FFF91D4FF046
:101A2C00FF3301220A4802F0DFF9B91D4FF0FF33F2
:101A3C000122074802F0D8F901224FF480410348F3
:101A4C0000F0A1FF00BF0837BD4680BD000C01406F
:101A5C000001002080B500AFFFF7A6FF01210C208C
:101A6C00FFF7CEFF00BF80BD80B500AFFFF79CFF36
:101A7C0000210C20FFF7C4FF00BF80BD80B500AF74
:101A8C00054BFF221A70044B1B7819460920FFF7EF
:101A9C00B7FF00BF80BD00BFDE00002080B582B064
:101AAC0000AF0346FB710B46BB7113467B71FFF70E
:101ABC007BFFFB79082B44D87B79002B20D0234B60
:101ACC001B78002B0ED1BB79184600F0BBF80346EF
:101ADC00DBB263F07F03DAB2FB7911461846FFF7ED
:101AEC008FFF2FE0194B1B78FF2B2BD1BB7963F0A9
:101AFC007F03DAB2FB7911461846FFF781FF21E02C
:101B0C00124B1B78002B0ED1BB79184600F09AF8BB
:101B1C000346DBB203F07F03DAB2FB7911461846B9
:101B2C00FFF76EFF0EE0094B1B78FF2B0AD1BB7938
:101B3C0003F07F03DAB2FB7911461846FFF760FF1A
:101B4C0000E000BF0837BD4680BD00BFDE000020AE
:101B5C0080B584B000AF03463960FB71FFF724FFFA
:101B6C00FF210920FFF74CFF3B68002B0DDAFB79B6
:101B7C00002B07D0FB790A211846FFF741FFFB79B0
:101B8C00013BFB713B685B423B600123FB6005E062
:101B9C00FA6813469B0013445B00FB603A68FB68D1
:101BAC0092FBF3F3092BF3DCFB79002B0CD03A6896
:101BBC00FB6892FBF3F3DAB2FB7911461846FFF798
:101BCC001FFFFB79013BFB71FB681C4A82FB031274
:101BDC009210DB17D31AFB6022E0FB79002B17D095
:101BEC00FA6813469B0013445B001A463B6893FB50
:101BFC00F2F102FB01F29A1AFB6892FBF3F3DAB2F0
:101C0C00FB7911461846FFF7FBFEFB79013BFB7194
:101C1C00FB680A4A82FB03129210DB17D31AFB6093
:101C2C00FB68002BD9DC064B1B7819460920FFF703
:101C3C00E7FEFB7918461037BD4680BD67666666C1
:101C4C00DE00002080B483B000AF0346FB71FB794B
:101C5C00034AD35C9BB218460C37BD4680BC704718
:101C6C001000002080B582B000AF3B1D00210A4659
:101C7C001A800A469A7000233B601D4B1D4A1A605D
:101C8C001B4B4FF0FF325A60194B4FF480729A6025
:101C9C00174801F061FC0346002B01D0FFF754FEFE
:101CAC0000233B7100237B710023BB713B1D012280
:101CBC0019460F4801F0E6FC0346002B01D0FFF754
:101CCC0043FE01233B7001237B700123BB70002377
:101CDC00FB703B4601221946054801F06BFD03469B
:101CEC00002B01D0FFF730FE00BF0837BD4680BD8A
:101CFC00EC0000200028004080B584B000AF786074
:101D0C007B681B680B4A934210D100F085FE0A4B8E
:101D1C00DB69094A43F00063D361074BDB6903F0CD
:101D2C000063FB60FB68054B01221A6000BF103793
:101D3C00BD4680BD00280040001002403C044242D9
:101D4C0080B500AF174B184A1A60164B4FF48272CD
:101D5C005A60144B00229A60124B0022DA60114B2D
:101D6C0000221A610F4B00225A610E4B4FF4007285
:101D7C009A610C4B1022DA610A4B00221A62094B51
:101D8C0000225A62074B00229A62064B0A22DA6240
:101D9C00044801F0A5FF0346002B01D0FFF7D4FD4A
:101DAC0000BF80BD000100200038004080B588B025
:101DBC0000AF786007F1100300221A605A609A6035
:101DCC00DA607B681B68164A934224D1154BDB6999
:101DDC00144A43F48043D361124BDB6903F4804310
:101DEC00FB60FB680F4B9B690E4A43F00803936141
:101DFC000C4B9B6903F00803BB60BB684FF420439A
:101E0C003B6102237B610323FB6107F1100319463D
:101E1C00054800F01DFC00BF2037BD4680BD00BF4B
:101E2C000038004000100240000C014080B485B026
:101E3C0000AF154B9B69144A43F001039361124B9D
:101E4C009B6903F00103BB60BB680F4BDB690E4A57
:101E5C0043F08053D3610C4BDB6903F080537B6000
:101E6C007B680A4B5B68FB60FB6823F0E063FB60FC
:101E7C00FB6843F00073FB60044AFB68536000BFCF
:101E8C001437BD4680BC7047001002400000014072
:101E9C0080B400AFFEE780B400AFFEE780B400AFC3
:101EAC00FEE780B400AFFEE780B400AFFEE780B47D
:101EBC0000AF00BFBD4680BC704780B400AF00BF10
:101ECC00BD4680BC704780B400AF00BFBD4680BC2F
:101EDC00704780B500AF00F00FFA00BF80BD80B531
:101EEC0000AF102000F080FD00BF80BD80B500AFBA
:101EFC00202000F079FD00BF80BD000080B500AF50
:101F0C00024802F0F5F900BF80BD00BF5801002067
:101F1C0080B586B000AF7860144A154BD31A7B613C
:101F2C007B693B61134B1B68002B02D1114B124A8E
:101F3C001A60104B1A687B6813443A699A4207D2AC
:101F4C0002F0E6FE03460C221A604FF0FF3309E064
:101F5C00084B1B68FB60074B1A687B681344054AE7
:101F6C001360FB6818461837BD4680BD0050002032
:101F7C0000040000E00000204002002080B400AF0C
:101F8C0000BFBD4680BC704780B586B000AF07F17E
:101F9C00080300221A605A609A60DA603B460022FD
:101FAC001A605A601D4B4FF080421A601B4B77220F
:101FBC005A601A4B00229A60184B41F26F72DA6029
:101FCC00164B00221A61154B00229A61134802F03D
:101FDC00EDF80346002B01D0FFF7B6FC4FF480530D
:101FEC00BB6007F1080319460C4802F089FA034656
:101FFC00002B01D0FFF7A8FC00233B6000237B6083
:10200C003B461946054802F05BFC0346002B01D009
:10201C00FFF79AFC00BF1837BD4680BD5801002061
:10202C0080B584B000AF78607B681B68B3F1804FDB
:10203C0013D10C4BDB690B4A43F00103D361094B01
:10204C00DB6903F00103FB60FB68002200211C200C
:10205C0000F0ABFA1C2000F0C4FA00BF1037BD46EC
:10206C0080BD00BF0010024080B500AF114B124A7A
:10207C001A60104B4FF4E1325A600E4B00229A60FA
:10208C000C4B0022DA600B4B00221A61094B0C221C
:10209C005A61084B00229A61064B0022DA6105480E
:1020AC0002F07EFC0346002B01D0FFF74DFC00BF75
:1020BC0080BD00BFE40100200038014080B500AFB6
:1020CC00114B124A1A60104B4FF4E1325A600E4B0E
:1020DC0000229A600C4B0022DA600B4B00221A6132
:1020EC00094B0C225A61084B00229A61064B0022C4
:1020FC00DA61054802F054FC0346002B01D0FFF7CF
:10210C0023FC00BF80BD00BFA001002000480040A0
:10211C0080B58AB000AF786007F1180300221A600E
:10212C005A609A60DA607B681B68384A934232D1F5
:10213C00374B9B69364A43F480439361344B9B691C
:10214C0003F480437B617B69314B9B69304A43F0DC
:10215C00040393612E4B9B6903F004033B613B69C1
:10216C004FF40073BB610223FB6103237B6207F115
:10217C0018031946274800F06BFA4FF48063BB61D3
:10218C000023FB6100233B6207F118031946214829
:10219C0000F05EFA36E07B681B681F4A934231D12F
:1021AC001B4BDB691A4A43F48023D361184BDB6960
:1021BC0003F48023FB60FB68154B9B69144A43F0C6
:1021CC0008039361124B9B6903F00803BB60BB6867
:1021DC004FF48063BB610223FB6103237B6207F135
:1021EC00180319460D4800F033FA4FF40063BB6135
:1021FC000023FB6100233B6207F1180319460748D3
:10220C0000F026FA00BF2837BD4680BD00380140DB
:10221C00001002400008014000480040000C014042
:10222C000C480D490D4A002302E0D458C450043325
:10223C00C4188C42F9D30A4A0A4C002301E01360FB
:10224C000432A242FBD3FFF799FE02F067FDFEF7C2
:10225C0027F87047000000209800002090590008D3
:10226C00980000203C020020FEE7000080B500AF83
:10227C00084B1B68074A43F010031360032000F05F
:10228C0089F90F2000F008F8FFF7D0FD002318465D
:10229C0080BD00BF0020024080B582B000AF7860E6
:1022AC00124B1A68124B1B7819464FF47A73B3FB16
:1022BC00F1F3B2FBF3F3184600F0AFF90346002B31
:1022CC0001D001230EE07B680F2B0AD8002279681D
:1022DC004FF0FF3000F069F9064A7B681360002369
:1022EC0000E0012318460837BD4680BD28000020B9
:1022FC00300000202C00002080B400AF054B1B7870
:10230C001A46054B1B681344034A136000BFBD46B5
:10231C0080BC7047300000202802002080B400AF41
:10232C00024B1B681846BD4680BC70472802002033
:10233C0080B584B000AF7860FFF7F0FFB8607B68C1
:10234C00FB60FB68B3F1FF3F05D00A4B1B781A46C4
:10235C00FB681344FB6000BFFFF7E0FF0246BB685D
:10236C00D31AFA689A42F7D800BF00BF1037BD469F
:10237C0080BD00BF3000002080B485B000AF786015
:10238C007B6803F00703FB600C4BDB68BB60BA682F
:10239C004FF6FF031340BB60FB681A02BB68134384
:1023AC0043F0BF6343F40033BB60044ABB68D360A3
:1023BC0000BF1437BD4680BC704700BF00ED00E085
:1023CC0080B400AF044BDB681B0A03F0070318460C
:1023DC00BD4680BC704700BF00ED00E080B483B008
:1023EC0000AF0346FB7197F90730002B0BDBFB7931
:1023FC0003F01F02064997F907305B09012000FA28
:10240C0002F241F8232000BF0C37BD4680BC704758
:10241C0000E100E080B483B000AF0346FB7197F994
:10242C000730002B12DBFB7903F01F020A4997F9E6
:10243C0007305B09012000FA02F2203341F8232017
:10244C00BFF34F8F00BFBFF36F8F00BF00BF0C37C0
:10245C00BD4680BC704700BF00E100E080B483B093
:10246C0000AF0346FB7197F90730002B0CDBFB79AF
:10247C0003F01F02074997F907305B09012000FAA6
:10248C0002F2603341F8232000BF0C37BD4680BCFC
:10249C00704700BF00E100E080B483B000AF03469A
:1024AC003960FB7197F90730002B0ADB3B68DAB215
:1024BC000C4997F907301201D2B20B4483F8002370
:1024CC000AE03B68DAB20849FB7903F00F03043BDE
:1024DC001201D2B20B441A7600BF0C37BD4680BC39
:1024EC00704700BF00E100E000ED00E080B489B06F
:1024FC0000AFF860B9607A60FB6803F00703FB611A
:10250C00FB69C3F10703042B28BF0423BB61FB69E0
:10251C000433062B02D9FB69033B00E000237B61EB
:10252C004FF0FF32BB6902FA03F3DA43BB681A407F
:10253C007B699A404FF0FF317B6901FA03F3D94371
:10254C007B680B40134318462437BD4680BC70474C
:10255C0080B582B000AF78607B68013BB3F1807FBF
:10256C0001D301230FE00A4A7B68013B53600F2122
:10257C004FF0FF30FFF790FF054B00229A60044BA1
:10258C0007221A60002318460837BD4680BD00BFDD
:10259C0010E000E080B582B000AF78607868FFF79B
:1025AC00EBFE00BF0837BD4680BD80B586B000AFDE
:1025BC000346B9607A60FB7300237B61FFF700FF71
:1025CC0078617A68B9687869FFF790FF024697F9E5
:1025DC000F3011461846FFF75FFF00BF1837BD4696
:1025EC0080BD80B582B000AF0346FB7197F9073010
:1025FC001846FFF7F3FE00BF0837BD4680BD80B517
:10260C0082B000AF0346FB7197F907301846FFF70D
:10261C0001FF00BF0837BD4680BD80B582B000AF5A
:10262C0078607868FFF794FF034618460837BD4674
:10263C0080BD80B582B000AF0346FB7197F90730BF
:10264C001846FFF70BFF00BF0837BD4680BD0000E2
:10265C0080B48BB000AF7860396000237B620023BC
:10266C003B6269E101227B6A02FA03F3FB613B687E
:10267C001B68FA691340BB61BA69FB699A4240F066
:10268C0058813B685B689A4A93425ED0984A934261
:10269C0075D8984A934258D0964A93426FD8964A26
:1026AC00934252D0944A934269D8944A93424CD064
:1026BC00924A934263D8924A934246D0904A9342AC
:1026CC005DD8122B2AD8122B59D801A252F823F01C
:1026DC0057270008312700084327000885270008E2
:1026EC008B2700088B2700088B2700088B270008F6
:1026FC008B2700088B2700088B2700088B270008E6
:10270C008B2700088B2700088B2700088B270008D5
:10271C008B270008392700084D270008794A934277
:10272C0013D02CE03B68DB683B6229E03B68DB683C
:10273C0004333B6224E03B68DB6808333B621FE0F8
:10274C003B68DB680C333B621AE03B689B68002BF0
:10275C0002D104233B6213E03B689B68012B05D13B
:10276C0008233B627B68FA691A6109E008233B6223
:10277C007B68FA695A6103E000233B6200E000BF0A
:10278C00BB69FF2B01D87B6801E07B6804337B615C
:10279C00BB69FF2B02D87B6A9B0002E07B6A083B7B
:1027AC009B003B617B691A680F213B6901FA03F3BB
:1027BC00DB431A40396A3B6901FA03F31A437B691C
:1027CC001A603B685B6803F08053002B00F0B1800B
:1027DC004D4B9B694C4A43F0010393614A4B9B69F7
:1027EC0003F00103BB60BB68484A7B6A9B08023359
:1027FC0052F82330FB607B6A03F003039B000F222B
:10280C0002FA03F3DB43FA681340FB607B68404A2F
:10281C00934213D07B683F4A93420DD07B683E4A6B
:10282C00934207D07B683D4A934201D1032306E0D3
:10283C00042304E0022302E0012300E000237A6A6F
:10284C0002F0030292009340FA681343FB602F4995
:10285C007B6A9B080233FA6841F823203B685B686B
:10286C0003F48033002B06D02D4B1A682C49BB691E
:10287C0013430B6006E02A4B1A68BB69DB432849FB
:10288C0013400B603B685B6803F40033002B06D0ED
:10289C00234B5A682249BB6913434B6006E0204B1B
:1028AC005A68BB69DB431E4913404B603B685B684D
:1028BC0003F48013002B06D0194B9A681849BB6996
:1028CC0013438B6006E0164B9A68BB69DB431449D3
:1028DC0013408B603B685B6803F40013002B21D022
:1028EC000F4BDA680E49BB691343CB6021E000BF84
:1028FC0000003210000031100000221000002110E6
:10290C0000001210000011100010024000000140E5
:10291C0000080140000C014000100140001401406F
:10292C00000401400B4BDA68BB69DB4309491340D7
:10293C00CB607B6A01337B623B681A687B6A22FA44
:10294C0003F3002B7FF48EAE00BF00BF2C37BD46C7
:10295C0080BC70470004014080B485B000AF786043
:10296C000B467B807B689A687B881340002B02D0D7
:10297C000123FB7301E00023FB73FB7B1846143728
:10298C00BD4680BC704780B483B000AF78600B4606
:10299C007B8013467B707B78002B03D07A887B6816
:1029AC001A6103E07B881A047B681A6100BF0C373C
:1029BC00BD4680BC704780B485B000AF78600B46D4
:1029CC007B807B68DB68FB607A88FB6813401A04A9
:1029DC00FB68D9437B880B401A437B681A6100BFA4
:1029EC001437BD4680BC704780B582B000AF03463B
:1029FC00FB80084B5A69FB881340002B06D0054A14
:102A0C00FB885361FB881846FEF75CFF00BF083754
:102A1C00BD4680BD0004014080B400AF034B0122D1
:102A2C001A6000BFBD4680BC704700BF20000E423C
:102A3C0080B586B000AF78607B68002B01D1012394
:102A4C006CE27B681B6803F00103002B00F08780AD
:102A5C00924B5B6803F00C03042B0CD08F4B5B6820
:102A6C0003F00C03082B12D18C4B5B6803F48033FE
:102A7C00B3F5803F0BD1894B1B6803F40033002B5B
:102A8C006CD07B685B68002B68D1012346E27B68C5
:102A9C005B68B3F5803F06D1804B1B687F4A43F4DB
:102AAC00803313602EE07B685B68002B0CD17B4B72
:102ABC001B687A4A23F480331360784B1B68774A7F
:102ACC0023F4802313601DE07B685B68B3F5A02FB3
:102ADC000CD1724B1B68714A43F4802313606F4B0B
:102AEC001B686E4A43F4803313600BE06B4B1B681E
:102AFC006A4A23F480331360684B1B68674A23F4DB
:102B0C00802313607B685B68002B13D0FFF706FCF7
:102B1C00386108E0FFF702FC02463B69D31A642BCC
:102B2C0001D90323FAE15D4B1B6803F40033002B3E
:102B3C00F0D014E0FFF7F2FB386108E0FFF7EEFB92
:102B4C0002463B69D31A642B01D90323E6E1534BAC
:102B5C001B6803F40033002BF0D100E000BF7B684E
:102B6C001B6803F00203002B63D04C4B5B6803F033
:102B7C000C03002B0BD0494B5B6803F00C03082BA8
:102B8C001CD1464B5B6803F48033002B16D1434BAE
:102B9C001B6803F00203002B05D07B681B69012B1B
:102BAC0001D00123BAE13D4B1B6823F0F8027B688E
:102BBC005B69DB00394913430B603AE07B681B69A6
:102BCC00002B20D0364B01221A60FFF7A7FB38618F
:102BDC0008E0FFF7A3FB02463B69D31A022B01D98D
:102BEC0003239BE12D4B1B6803F00203002BF0D059
:102BFC002A4B1B6823F0F8027B685B69DB002749D2
:102C0C0013430B6015E0264B00221A60FFF786FB7E
:102C1C00386108E0FFF782FB02463B69D31A022BAE
:102C2C0001D903237AE11D4B1B6803F00203002B2F
:102C3C00F0D17B681B6803F00803002B3AD07B684B
:102C4C009B69002B19D0174B01221A60FFF766FB0A
:102C5C00386108E0FFF762FB02463B69D31A022B8E
:102C6C0001D903235AE10D4B5B6A03F00203002BDD
:102C7C00F0D0012000F0D8FA1CE00A4B00221A60B8
:102C8C00FFF74CFB38610FE0FFF748FB02463B694E
:102C9C00D31A022B08D9032340E100BF00100240D5
:102CAC0000004242800442429E4B5B6A03F00203E6
:102CBC00002BE9D17B681B6803F00403002B00F0A8
:102CCC00A6800023FB75974BDB6903F08053002B28
:102CDC000DD1944BDB69934A43F08053D361914BF4
:102CEC00DB6903F08053BB60BB680123FB758E4B23
:102CFC001B6803F48073002B18D18B4B1B688A4A1A
:102D0C0043F480731360FFF709FB386108E0FFF7A9
:102D1C0005FB02463B69D31A642B01D90323FDE062
:102D2C00814B1B6803F48073002BF0D07B68DB684D
:102D3C00012B06D17B4B1B6A7A4A43F001031362C9
:102D4C002DE07B68DB68002B0CD1764B1B6A754A37
:102D5C0023F001031362734B1B6A724A23F00403C2
:102D6C0013621CE07B68DB68052B0CD16D4B1B6A76
:102D7C006C4A43F0040313626A4B1B6A694A43F0C2
:102D8C00010313620BE0674B1B6A664A23F00103D5
:102D9C001362644B1B6A634A23F0040313627B685F
:102DAC00DB68002B15D0FFF7B9FA38610AE0FFF7A2
:102DBC00B5FA02463B69D31A41F28832934201D9E3
:102DCC000323ABE0574B1B6A03F00203002BEED03E
:102DDC0014E0FFF7A3FA38610AE0FFF79FFA024606
:102DEC003B69D31A41F28832934201D9032395E00F
:102DFC004C4B1B6A03F00203002BEED1FB7D012B25
:102E0C0005D1484BDB69474A23F08053D3617B687B
:102E1C00DB69002B00F08180424B5B6803F00C03F4
:102E2C00082B61D07B68DB69022B46D13F4B00221B
:102E3C001A60FFF773FA386108E0FFF76FFA024681
:102E4C003B69D31A022B01D9032367E0354B1B686E
:102E5C0003F00073002BF0D17B681B6AB3F5803F45
:102E6C0008D1304B5B6823F400327B689B682D499A
:102E7C0013434B602B4B5B6823F474127B68196A09
:102E8C007B685B6A0B43274913434B60274B01223A
:102E9C001A60FFF743FA386108E0FFF73FFA024681
:102EAC003B69D31A022B01D9032337E01D4B1B6856
:102EBC0003F00073002BF0D02FE01C4B00221A60A3
:102ECC00FFF72CFA386108E0FFF728FA02463B6955
:102EDC00D31A022B01D9032320E0124B1B6803F0F9
:102EEC000073002BF0D118E07B68DB69012B01D15A
:102EFC00012313E00B4B5B68FB60FB6803F480322F
:102F0C007B681B6A9A4206D1FB6803F470127B68DB
:102F1C005B6A9A4201D0012300E00023184618375F
:102F2C00BD4680BD0010024000700040600042426F
:102F3C0080B584B000AF786039607B68002B01D11C
:102F4C000123D0E06A4B1B6803F007033A689A42EE
:102F5C0010D9674B1B6823F0070265493B68134384
:102F6C000B60634B1B6803F007033A689A4201D06D
:102F7C000123B8E07B681B6803F00203002B20D010
:102F8C007B681B6803F00403002B05D0594B5B686E
:102F9C00584A43F4E06353607B681B6803F00803F2
:102FAC00002B05D0534B5B68524A43F4605353607B
:102FBC00504B5B6823F0F0027B689B684D491343D0
:102FCC004B607B681B6803F00103002B40D07B68CF
:102FDC005B68012B07D1474B1B6803F40033002BB4
:102FEC0015D101237FE07B685B68022B07D1414B35
:102FFC001B6803F00073002B09D1012373E03D4BD8
:10300C001B6803F00203002B01D101236BE0394B49
:10301C005B6823F003027B685B68364913434B60A3
:10302C00FFF77CF9F8600AE0FFF778F90246FB68D5
:10303C00D31A41F28832934201D9032353E02D4B2A
:10304C005B6803F00C027B685B689B009A42EBD1D7
:10305C00274B1B6803F007033A689A4210D2244BA3
:10306C001B6823F0070222493B6813430B60204B7B
:10307C001B6803F007033A689A4201D0012332E03F
:10308C007B681B6803F00403002B08D0194B5B68AA
:10309C0023F4E0627B68DB68164913434B607B6862
:1030AC001B6803F00803002B09D0124B5B6823F458
:1030BC0060527B681B69DB000E4913434B6000F0C8
:1030CC0021F802460B4B5B681B0903F00F030A49FE
:1030DC00CB5C22FA03F3094A1360094B1B681846B0
:1030EC00FFF7DAF8002318461037BD4680BD00BF45
:1030FC0000200240001002403C590008280000202B
:10310C002C00002090B48AB000AF2A4B3C1D0FCB92
:10311C0084E80F0040F201233B800023FB61002375
:10312C00BB6100237B6200237B6100233B62224B4B
:10313C005B68FB61FB6903F00C03042B02D0082BCA
:10314C0003D02DE01D4B3B622DE0FB699B0C03F083
:10315C000F0307F12802134413F8243C7B61FB692D
:10316C0003F48033002B13D0134B5B685B0C03F020
:10317C00010307F12802134413F8283CBB617B6957
:10318C000E4A02FB03F2BB69B2FBF3F37B6204E071
:10319C007B690B4A02FB03F37B627B6A3B6202E0B6
:1031AC00064B3B6200BF3B6A18462837BD4690BCB5
:1031BC00704700BF1C5900080010024000127A0032
:1031CC0000093D0080B400AF024B1B681846BD4699
:1031DC0080BC70472800002080B500AFFFF7F2FFDD
:1031EC000246054B5B681B0A03F007030349CB5CE3
:1031FC0022FA03F3184680BD001002404C59000817
:10320C0080B500AFFFF7DEFF0246054B5B68DB0ABB
:10321C0003F007030349CB5C22FA03F3184680BD85
:10322C00001002404C59000880B485B000AF7860A3
:10323C000A4B1B680A4AA2FB03235B0A7A6802FB4F
:10324C0003F3FB6000BFFB685A1EFA60002BF9D138
:10325C0000BF00BF1437BD4680BC7047280000205B
:10326C00D34D621080B586B000AF786000233B610F
:10327C000023FB607B681B6803F00103002B7DD0EF
:10328C000023FB754F4BDB6903F08053002B0DD1F2
:10329C004C4BDB694B4A43F08053D361494BDB69A0
:1032AC0003F08053BB60BB680123FB75464B1B6866
:1032BC0003F48073002B18D1434B1B68424A43F430
:1032CC0080731360FFF72AF8386108E0FFF726F8DF
:1032DC0002463B69D31A642B01D903236DE03A4BA8
:1032EC001B6803F48073002BF0D0364B1B6A03F47D
:1032FC004073FB60FB68002B2ED07B685B6803F48B
:10330C004073FA689A4227D02E4B1B6A23F4407301
:10331C00FB602E4B01221A602C4B00221A60294AAA
:10332C00FB681362FB6803F00103002B14D0FEF75B
:10333C00F5FF38610AE0FEF7F1FF02463B69D31A4C
:10334C0041F28832934201D9032336E01D4B1B6AAC
:10335C0003F00203002BEED01A4B1B6A23F44072CD
:10336C007B685B68174913430B62FB7D012B05D10E
:10337C00144BDB69134A23F08053D3617B681B68C1
:10338C0003F00203002B08D00E4B5B6823F4404281
:10339C007B689B680B4913434B607B681B6803F08D
:1033AC001003002B08D0074B5B6823F480027B686A
:1033BC00DB68044913434B60002318461837BD469D
:1033CC0080BD00BF0010024000700040400442422B
:1033DC0090B58DB000AF78605A4B07F10C040FCB51
:1033EC0084E80F0040F201233B8100237B62002321
:1033FC00FB6200233B620023FB610023BB627B6802
:10340C00102B0AD07B68102B00F291807B68012B6B
:10341C004CD07B68022B7CD089E04B4B5B68FB610A
:10342C00494B1B6803F08073002B00F08280FB6912
:10343C009B0C03F00F0307F13002134413F8243CE8
:10344C003B62FB6903F48033002B18D03E4B5B6866
:10345C005B0C03F0010307F13002134413F8283C12
:10346C007B62FB6903F48033002B0DD0374A7B6AF7
:10347C00B2FBF3F23B6A02FB03F3FB6204E03B6A30
:10348C00334A02FB03F3FB622F4B5B6803F48003AC
:10349C00B3F5800F02D1FB6ABB624AE0FB6A5B00AA
:1034AC002C4AA2FB03235B08BB6242E0264B1B6A3F
:1034BC00FB61FB6903F44073B3F5807F08D1FB69B2
:1034CC0003F00203002B03D04FF40043BB621FE058
:1034DC00FB6903F44073B3F5007F09D11A4B5B6AA7
:1034EC0003F00203002B03D049F64043BB620FE00C
:1034FC00FB6903F44073B3F5407F1CD1124B1B687E
:10350C0003F40033002B16D04FF22443BB6212E0BD
:10351C0011E0FFF775FE02460B4B5B689B0B03F04B
:10352C00030301335B00B2FBF3F3BB6204E000BFA7
:10353C0002E000BF00E000BFBB6A18463437BD464E
:10354C0090BD00BF2C5900080010024000127A00F8
:10355C0000093D00ABAAAAAA80B584B000AF786080
:10356C000023FB607B68002B01D1012384E07B6886
:10357C005B7CDBB2002B05D17B6800221A74786867
:10358C00FEF7BAFB7B6802225A74786800F0C8F91F
:10359C000346002B04D07B6804225A7401236BE091
:1035AC00786800F081FA0346002B04D07B68042273
:1035BC005A74012360E07B681B685A687B681B683F
:1035CC0022F007025A607B689B68002B05D02C4BBD
:1035DC001B6B2B4A23F001031363294BDB6A23F487
:1035EC0060727B689B6826491343CB627B685B687F
:1035FC00B3F1FF3F03D07B685B68FB600EE00120FA
:10360C00FFF7E6FEF860FB68002B04D17B68042210
:10361C005A74012330E0FB68013BFB607B681B683C
:10362C009B6823F00F01FB681A0C7B681B680A432C
:10363C009A607B681B68DB681B0C1B04FA6891B2F0
:10364C007A6812680B43D360786800F055FA034629
:10365C00002B04D07B6804225A7401230CE07B6895
:10366C000022DA737B6801225A737B6801229A73F9
:10367C007B6801225A74002318461037BD4680BD62
:10368C00006C004090B587B000AFF860B9607A600C
:10369C0000237B6100233B61FB68002B02D0BB68DD
:1036AC00002B01D1012380E0FB681B7C012B01D195
:1036BC0002237AE0FB6801221A74FB6802225A7416
:1036CC007B68002B13D1BB681B781A464FF46163DF
:1036DC0003FB02F2BB685B7819460B461B015B1AB5
:1036EC009B001344BA68927813447B611EE0BB685C
:1036FC001B78184600F028FA03461A464FF461630B
:10370C0003FB02F4BB685B78184600F01DFA034615
:10371C001A4613461B019B1A9B001C44BB689B78E2
:10372C00184600F011FA034623447B617969F86866
:10373C0000F053F90346002B07D0FB6804225A749F
:10374C00FB6800221A7401232FE0FB681B685A687F
:10375C00FB681B6822F005025A60F86800F064F9F7
:10376C0038613B69B3F1FF3F18D03A697B699A42E3
:10377C0014D23B6903F5A83303F5C0733B61396977
:10378C00F86800F06AF90346002B07D0FB680422A6
:10379C005A74FB6800221A74012306E0FB680122AC
:1037AC005A74FB6800221A74002318461C37BD4655
:1037BC0090BD000080B588B000AFF860B9607A6049
:1037CC000023FB610023BB6100237B61FB68002BA2
:1037DC0002D0BB68002B01D1012397E0FB681B7C56
:1037EC00012B01D1022391E0FB6801221A74FB68C2
:1037FC0002225A747B68002B0CD1BB68DA78FB6808
:10380C00DA73BB685A78FB685A73BB689A78FB68A2
:10381C009A731AE0BB68DB78184600F095F90346FA
:10382C001A46FB68DA73BB685B78184600F08CF9B3
:10383C0003461A46FB685A73BB689B78184600F01F
:10384C0083F903461A46FB689A73FB68DB7B1846C0
:10385C00FB68597BFB689B7B1A4600F093F9034687
:10386C001A46FB681A73FB681A7BBB681A70F868F7
:10387C0000F083F8F861FB69264AA2FB0323DB0AFC
:10388C007B617B69182B3AD97B69234AA2FB032302
:10389C001B09224A02FB03F3FA69D31AFB61F9698B
:1038AC00F86800F09AF80346002B07D0FB68042256
:1038BC005A74FB6800221A74012327E0F86800F0A0
:1038CC00B3F8B861BB69B3F1FF3F18D0BA69FB69B3
:1038DC009A4214D2BB6903F5A83303F5C073BB61DC
:1038EC00B969F86800F0B9F80346002B07D0FB68FB
:1038FC0004225A74FB6800221A74012306E0FB6848
:10390C0001225A74FB6800221A74002318462037CF
:10391C00BD4680BDC5B3A291ABAAAAAA8051010035
:10392C0080B584B000AF78600023FB607B68002B0F
:10393C0001D101231DE07B681B685A687B681B68FA
:10394C0022F008025A60FEF7E9FCF86009E0FEF785
:10395C00E5FC0246FB68D31AB3F57A7F01D9032341
:10396C0007E07B681B685B6803F00803002BEED054
:10397C00002318461037BD4680BD80B487B000AF19
:10398C00786000237B8200233B820023FB81002391
:10399C007B617B681B689B697B827B681B68DB692E
:1039AC00FB817B681B689B693B827A8A3B8A9A42C3
:1039BC0008D03B8A1A047B681B68DB699BB21343F3
:1039CC007B6104E07B8A1A04FB8913437B617B696E
:1039DC0018461C37BD4680BC704780B584B000AF1C
:1039EC00786039600023FB73786800F05DF803465B
:1039FC00002B02D00123FB7311E07B681B683A6833
:103A0C00120C9A617B681B683A6892B2DA6178682A
:103A1C0000F072F80346002B01D00123FB73FB7BF3
:103A2C0018461037BD4680BD80B485B000AF7860B5
:103A3C000023FB810023BB817B681B681B6AFB8115
:103A4C007B681B685B6ABB81FB891A04BB891343C7
:103A5C0018461437BD4680BC704780B584B000AFA3
:103A6C00786039600023FB73786800F01DF803461A
:103A7C00002B02D00123FB7311E07B681B683A68B2
:103A8C00120C1A627B681B683A6892B25A627868A8
:103A9C0000F032F80346002B01D00123FB73FB7BB3
:103AAC0018461037BD4680BD80B584B000AF786035
:103ABC000023FB60FEF732FCF86009E0FEF72EFCF9
:103ACC000246FB68D31AB3F57A7F01D903230FE0C2
:103ADC007B681B685B6803F02003002BEED07B68CF
:103AEC001B685A687B681B6842F010025A600023FE
:103AFC0018461037BD4680BD80B584B000AF7860E5
:103B0C000023FB607B681B685A687B681B6822F08B
:103B1C0010025A60FEF702FCF86009E0FEF7FEFBAB
:103B2C000246FB68D31AB3F57A7F01D9032307E069
:103B3C007B681B685B6803F02003002BEED000232E
:103B4C0018461037BD4680BD80B485B000AF034623
:103B5C00FB710023FB60FB791B09DBB21A46134691
:103B6C009B0013445B00FB60FB7903F00F03DAB29C
:103B7C00FB68DBB21344DBB218461437BD4680BC7D
:103B8C007047000080B485B000AF78600B46FB70C6
:103B9C001346BB700023BB600023FB607B6803F5FE
:103BAC00FA63BB60FB78022B2DD8FA7813465B00C6
:103BBC001344DB009B1A2C4AA2FB03235A08BB7844
:103BCC001A44BB681A44BB68013B9B081A44BB6887
:103BDC00013B2649A1FB03135B09D21ABB68013BCD
:103BEC002249A1FB0313DB0913441A1D204BA3FB31
:103BFC000213D11A49080B4499080B46DB005B1AD7
:103C0C00D31AFB6029E0FA7813465B001344DB00FF
:103C1C009B1A154AA2FB03235A08BB781A44BB68AB
:103C2C001A44BB689B081A44BB681049A1FB0313D8
:103C3C005B09D21ABB680D49A1FB0313DB091344C2
:103C4C009A1C0B4BA3FB0213D11A49080B4499087D
:103C5C000B46DB005B1AD31AFB60FB68DBB2184621
:103C6C001437BD4680BC7047398EE3381F85EB5145
:103C7C002549922480B487B000AFF860B9607A60AF
:103C8C0000237B61074B7B61BB689B007A69134403
:103C9C007B617B697A6892B21A6000BF1C37BD46A3
:103CAC0080BC7047006C004080B485B000AF786079
:103CBC0039600023FB600023BB60084BFB603B6852
:103CCC009B00FA681344FB60FB681B689BB2BB60EB
:103CDC00BB6818461437BD4680BC7047006C00406A
:103CEC0080B582B000AF78607B68002B01D10123D6
:103CFC0076E07B685B6A002B08D17B685B68B3F568
:103D0C00827F09D07B680022DA6105E07B680022A3
:103D1C001A617B6800225A617B6800229A627B6878
:103D2C0093F85130DBB2002B06D17B68002283F86C
:103D3C0050207868FEF73AF87B68022283F851200D
:103D4C007B681B681A687B681B6822F040021A604B
:103D5C007B685B6803F482727B689B6803F40443A2
:103D6C001A437B68DB6803F400631A437B681B69A6
:103D7C0003F002031A437B685B6903F001031A43E7
:103D8C007B689B6903F400731A437B68DB6903F05F
:103D9C0038031A437B681B6A03F0800342EA030171
:103DAC007B689B6A03F400527B681B680A431A60A9
:103DBC007B689B691A0C7B681B6802F004025A60D2
:103DCC007B681B68DA697B681B6822F40062DA6125
:103DDC007B6800225A657B68012283F851200023FE
:103DEC0018460837BD4680BD80B588B000AFF86076
:103DFC00B9603B601346FB800023FB77FB6893F8AC
:103E0C005030012B01D1022326E1FB68012283F8FB
:103E1C005020FEF783FAB861FB88FB82FB6893F8AD
:103E2C005130DBB2012B02D00223FB770BE1BB68D4
:103E3C00002B02D0FB88002B02D10123FB7702E17F
:103E4C00FB68032283F85120FB6800225A65FB684B
:103E5C00BA681A63FB68FA889A86FB68FA88DA866D
:103E6C00FB6800229A63FB6800229A87FB68002299
:103E7C00DA87FB6800225A64FB6800221A64FB682C
:103E8C009B68B3F5004F0FD1FB681B681A68FB6881
:103E9C001B6822F040021A60FB681B681A68FB68FA
:103EAC001B6842F480421A60FB681B681B6803F0B5
:103EBC004003402B07D0FB681B681A68FB681B6823
:103ECC0042F040021A60FB68DB68B3F5006F4BD11F
:103EDC00FB685B68002B02D0FB8A012B3ED1FB6890
:103EEC001B6B1A88FB681B68DA60FB681B6B9A1CDF
:103EFC00FB681A63FB68DB8E9BB2013B9AB2FB68D2
:103F0C00DA862BE0FB681B689B6803F00203022B2C
:103F1C0012D1FB681B6B1A88FB681B68DA60FB68A4
:103F2C001B6B9A1CFB681A63FB68DB8E9BB2013B14
:103F3C009AB2FB68DA8611E0FEF7F0F90246BB692B
:103F4C00D31A3A689A4203D83B68B3F1FF3F02D1C7
:103F5C003B68002B02D10323FB7774E0FB68DB8EFC
:103F6C009BB2002BCED14CE0FB685B68002B02D0DF
:103F7C00FB8A012B40D1FB681A6BFB681B680C3366
:103F8C0012781A70FB681B6B5A1CFB681A63FB686F
:103F9C00DB8E9BB2013B9AB2FB68DA862CE0FB68A5
:103FAC001B689B6803F00203022B13D1FB681A6B8E
:103FBC00FB681B680C3312781A70FB681B6B5A1C5D
:103FCC00FB681A63FB68DB8E9BB2013B9AB2FB6801
:103FDC00DA8611E0FEF7A2F90246BB69D31A3A68F9
:103FEC009A4203D83B68B3F1FF3F02D13B68002BE8
:103FFC0002D10323FB7726E0FB68DB8E9BB2002B00
:10400C00CDD1BA693968F86800F0B2F80346002BD4
:10401C0002D0FB6820225A65FB689B68002B0AD1F2
:10402C0000233B61FB681B68DB683B61FB681B681A
:10403C009B683B613B69FB685B6D002B02D00123E5
:10404C00FB7700E000BFFB68012283F85120FB687E
:10405C00002283F85020FB7F18462037BD4680BDD8
:10406C0080B588B000AFF860B9603B601346FB7157
:10407C00FEF754F90246BB6A9B1A3A681344FB617B
:10408C00FEF74CF9B861394B1B685B011B0DFA69E3
:10409C0002FB03F37B6154E03B68B3F1FF3F50D06C
:1040AC00FEF73CF90246BB69D31AFA699A4202D967
:1040BC00FB69002B3DD1FB681B685A68FB681B68C9
:1040CC0022F0E0025A60FB685B68B3F5827F11D185
:1040DC00FB689B68B3F5004F04D0FB689B68B3F595
:1040EC00806F07D1FB681B681A68FB681B6822F09D
:1040FC0040021A60FB689B6AB3F5005F0FD1FB6846
:10410C001B681A68FB681B6822F400521A60FB6873
:10411C001B681A68FB681B6842F400521A60FB6843
:10412C00012283F85120FB68002283F850200323DE
:10413C0017E07B69002B01D10023FB617B69013BFC
:10414C007B61FB681B689A68BB681340BA689A422B
:10415C000CBF01230023DBB21A46FB799A429BD198
:10416C00002318462037BD4680BD00BF2800002024
:10417C0080B586B002AFF860B9607A607B68009356
:10418C00BB6800228021F868FFF76AFF0346002B0A
:10419C0007D0FB685B6D43F02002FB685A65032374
:1041AC0000E0002318461037BD4680BD80B582B0B4
:1041BC0000AF78607B68002B01D1012341E07B6864
:1041CC0093F83D30DBB2002B06D17B68002283F8DC
:1041DC003C207868FDF724FF7B68022283F83D20A1
:1041EC007B681A687B6804331946104600F070FA35
:1041FC007B68012283F846207B68012283F83E20ED
:10420C007B68012283F83F207B68012283F84020E1
:10421C007B68012283F841207B68012283F84220CD
:10422C007B68012283F843207B68012283F84420B9
:10423C007B68012283F845207B68012283F83D20AE
:10424C00002318460837BD4680BD000080B485B0F9
:10425C0000AF78607B6893F83D30DBB2012B01D066
:10426C0001233AE07B68022283F83D207B681B68BF
:10427C00DA687B681B6842F00102DA607B681B68B5
:10428C00184A93420ED07B681B68B3F1804F09D05B
:10429C007B681B68144A934204D07B681B68134AE2
:1042AC00934211D17B681B689B6803F00703FB608A
:1042BC00FB68062B10D07B681B681A687B681B6830
:1042CC0042F001021A6007E07B681B681A687B6881
:1042DC001B6842F001021A60002318461437BD46D1
:1042EC0080BC7047002C01400004004000080040D6
:1042FC0080B582B000AF78607B681B681B6903F0E7
:10430C000203022B22D17B681B68DB6803F00203DB
:10431C00022B1BD17B681B686FF002021A617B6851
:10432C0001221A777B681B689B6903F00303002B3F
:10433C0003D0786800F0B1F905E0786800F0A4F9D2
:10434C00786800F0B3F97B6800221A777B681B68E9
:10435C001B6903F00403042B22D17B681B68DB6808
:10436C0003F00403042B1BD17B681B686FF0040261
:10437C001A617B6802221A777B681B689B6903F4BD
:10438C004073002B03D0786800F087F905E078685B
:10439C0000F07AF9786800F089F97B6800221A77C6
:1043AC007B681B681B6903F00803082B22D17B6810
:1043BC001B68DB6803F00803082B1BD17B681B68A8
:1043CC006FF008021A617B6804221A777B681B68FD
:1043DC00DB6903F00303002B03D0786800F05DF970
:1043EC0005E0786800F050F9786800F05FF97B68B8
:1043FC0000221A777B681B681B6903F01003102BD3
:10440C0022D17B681B68DB6803F01003102B1BD1D7
:10441C007B681B686FF010021A617B6808221A77A0
:10442C007B681B68DB6903F44073002B03D078684E
:10443C0000F033F905E0786800F026F9786800F0B0
:10444C0035F97B6800221A777B681B681B6903F0BF
:10445C000103012B0ED17B681B68DB6803F00103A1
:10446C00012B07D17B681B686FF001021A61786819
:10447C00FCF7CCFA7B681B681B6903F08003802B6C
:10448C000ED17B681B68DB6803F08003802B07D19F
:10449C007B681B686FF080021A61786800F077FA0D
:1044AC007B681B681B6903F04003402B0ED17B68B3
:1044BC001B68DB6803F04003402B07D17B681B684B
:1044CC006FF040021A61786800F0F9F87B681B689D
:1044DC001B6903F02003202B0ED17B681B68DB6863
:1044EC0003F02003202B07D17B681B686FF02002A0
:1044FC001A61786800F042FA00BF0837BD4680BDEB
:10450C0080B584B000AF786039607B6893F83C303C
:10451C00012B01D10223B3E07B68012283F83C20FC
:10452C007B68022283F83D207B681B689B68FB60DC
:10453C00FB6823F07703FB60FB6823F47F43FB608D
:10454C007B681B68FA689A603B681B68B3F5005F70
:10455C003ED0B3F5005F00F28780B3F5805F00F0CA
:10456C008580B3F5805F7FD8702B1AD0702B7BD8E9
:10457C00602B50D0602B77D8502B3CD0502B73D85D
:10458C00402B58D0402B6FD8302B64D0302B6BD8AD
:10459C00202B60D0202B67D8002B5CD0102B5AD04E
:1045AC0062E07B6818683B6899683B685A683B68AE
:1045BC00DB6800F066F97B681B689B68FB60FB6836
:1045CC0043F07703FB607B681B68FA689A604EE0E7
:1045DC007B6818683B6899683B685A683B68DB687D
:1045EC0000F04FF97B681B689A687B681B6842F483
:1045FC0080429A603BE07B6818683B6859683B686E
:10460C00DB681A4600F0C6F87B681B685021184618
:10461C0000F01DF92BE07B6818683B6859683B6813
:10462C00DB681A4600F0E4F87B681B6860211846CA
:10463C0000F00DF91BE07B6818683B6859683B6813
:10464C00DB681A4600F0A6F87B681B684021184608
:10465C0000F0FDF80BE07B681A683B681B68194694
:10466C00104600F0F4F802E000BF00E000BF7B68E9
:10467C00012283F83D207B68002283F83C20002334
:10468C0018461037BD4680BD80B483B000AF78604B
:10469C0000BF0C37BD4680BC704780B483B000AF00
:1046AC00786000BF0C37BD4680BC704780B483B0C7
:1046BC0000AF786000BF0C37BD4680BC704780B43B
:1046CC0083B000AF786000BF0C37BD4680BC70472C
:1046DC0080B485B000AF786039607B681B68FB6084
:1046EC007B68294A93420BD07B68B3F1804F07D08B
:1046FC007B68264A934203D07B68254A934208D1B3
:10470C00FB6823F07003FB603B685B68FA6813433B
:10471C00FB607B681C4A93420BD07B68B3F1804FE3
:10472C0007D07B68194A934203D07B68184A93429E
:10473C0008D1FB6823F44073FB603B68DB68FA68C4
:10474C001343FB60FB6823F080023B685B691343F7
:10475C00FB607B68FA681A603B689A687B68DA626F
:10476C003B681A687B689A627B68074A934203D15C
:10477C003B681A697B681A637B6801225A6100BF27
:10478C001437BD4680BC7047002C0140000400402B
:10479C000008004080B487B000AFF860B9607A6060
:1047AC00FB681B6A7B61FB681B6A23F00102FB68D8
:1047BC001A62FB689B693B613B6923F0F0033B6128
:1047CC007B681B013A6913433B617B6923F00A0345
:1047DC007B617A69BB6813437B61FB683A699A61B8
:1047EC00FB687A691A6200BF1C37BD4680BC7047F3
:1047FC0080B487B000AFF860B9607A60FB681B6A60
:10480C0023F01002FB681A62FB689B697B61FB68F2
:10481C001B6A3B617B6923F470437B617B681B03E0
:10482C007A6913437B613B6923F0A0033B61BB684E
:10483C001B013A6913433B61FB687A699A61FB6817
:10484C003A691A6200BF1C37BD4680BC704780B401
:10485C0085B000AF786039607B689B68FB60FB6853
:10486C0023F07003FB603A68FB68134343F00703C3
:10487C00FB607B68FA689A6000BF1437BD4680BC49
:10488C00704780B487B000AFF860B9607A603B6065
:10489C00FB689B687B617B6923F47F437B613B688E
:1048AC001A027B681A43BB6813437A6913437B6112
:1048BC00FB687A699A6000BF1C37BD4680BC7047A4
:1048CC0080B485B000AF786039607B6893F83C3079
:1048DC00012B01D1022346E07B68012283F83C20A6
:1048EC007B68022283F83D207B681B685B68FB6059
:1048FC007B681B689B68BB60FB6823F07003FB60E4
:10490C003B681B68FA681343FB607B681B68FA689A
:10491C005A607B681B68164A93420ED07B681B68F2
:10492C00B3F1804F09D07B681B68124A934204D0C4
:10493C007B681B68104A93420CD1BB6823F0800340
:10494C00BB603B685B68BA681343BB607B681B68E1
:10495C00BA689A607B68012283F83D207B6800224C
:10496C0083F83C20002318461437BD4680BC7047A2
:10497C00002C0140000400400008004080B483B0CB
:10498C0000AF786000BF0C37BD4680BC704780B468
:10499C0083B000AF786000BF0C37BD4680BC704759
:1049AC0080B582B000AF78607B68002B01D1012309
:1049BC003FE07B6893F83D30DBB2002B06D17B687F
:1049CC00002283F83C207868FDF7A2FB7B68242248
:1049DC0083F83D207B681B68DA687B681B6822F4CF
:1049EC000052DA60786800F005F97B681B681A6978
:1049FC007B681B6822F490421A617B681B685A69B9
:104A0C007B681B6822F02A025A617B681B68DA6893
:104A1C007B681B6842F40052DA607B6800221A64DF
:104A2C007B68202283F83D207B68202283F83E207F
:104A3C00002318460837BD4680BD80B58AB002AF4A
:104A4C00F860B9603B601346FB8000237B61FB6818
:104A5C0093F83D30DBB2202B7CD1BB68002B02D00D
:104A6C00FB88002B01D1012375E0FB6893F83C30E7
:104A7C00012B01D102236EE0FB68012283F83C205C
:104A8C00FB6800221A64FB68212283F83D20FDF7A5
:104A9C0045FC7861FB68FA889A84FB68FA88DA84AA
:104AAC00FB689B68B3F5805F08D1FB681B69002B22
:104ABC0004D10023FB61BB68BB6103E0BB68FB61F5
:104ACC000023BB61FB68002283F83C202AE03B6892
:104ADC0000937B6900228021F86800F040F80346BF
:104AEC00002B01D0032336E0FB69002B0BD1BB69F3
:104AFC001B881A46FB681B68C2F308025A60BB6924
:104B0C000233BB6107E0FB691A78FB681B685A60CB
:104B1C00FB690133FB61FB68DB8C9BB2013B9AB2F6
:104B2C00FB68DA84FB68DB8C9BB2002BCFD13B6833
:104B3C0000937B6900224021F86800F010F80346CE
:104B4C00002B01D0032306E0FB68202283F83D20D4
:104B5C00002300E0022318462037BD4680BD80B5F7
:104B6C0084B000AFF860B9603B601346FB712CE079
:104B7C00BB69B3F1FF3F28D0BB69002B07D0FDF711
:104B8C00CDFB02463B68D31ABA699A421DD2FB6828
:104B9C001B68DA68FB681B6822F4D072DA60FB6869
:104BAC001B685A69FB681B6822F001025A61FB689A
:104BBC00202283F83D20FB68202283F83E20FB68EE
:104BCC00002283F83C2003230FE0FB681B681A6863
:104BDC00BB681340BA689A420CBF01230023DBB2B6
:104BEC001A46FB799A42C3D0002318461037BD46AB
:104BFC0080BD000080B584B000AF78607B681B6816
:104C0C001B6923F440517B68DA687B681B680A4394
:104C1C001A617B689A687B681B691A437B685B69BD
:104C2C001343BB607B681B68DB6823F4B05323F031
:104C3C000C037A681268B9680B43D3607B681B68F5
:104C4C005B6923F440717B689A697B681B680A4333
:104C5C005A617B681B682C4A934203D1FEF7D0FA49
:104C6C00F86002E0FEF7B8FAF860FA6813469B00A9
:104C7C0013449A001A447B685B689B00B2FBF3F305
:104C8C00224AA2FB03235B091901FA6813469B0015
:104C9C0013449A001A447B685B689B00B2FBF3F2E6
:104CAC001A4BA3FB02035B09642000FB03F3D31A2A
:104CBC001B013233154AA2FB03235B0903F0F003FB
:104CCC001944FA6813469B0013449A001A447B68F3
:104CDC005B689B00B2FBF3F20C4BA3FB02035B097A
:104CEC00642000FB03F3D31A1B013233074AA2FBE7
:104CFC0003235B0903F00F027B681B680A449A606C
:104D0C0000BF1037BD4680BD003801401F85EB51F8
:104D1C00014B1868704700BF3400002070B50026A6
:104D2C000C4D0D4C641BA410A64209D100F05CFC88
:104D3C0000260A4D0A4C641BA410A64205D170BD76
:104D4C0055F8043B98470136EEE755F8043B984775
:104D5C000136F2E78859000888590008885900087C
:104D6C008C59000803460244934200D1704703F863
:104D7C00011BF9E70EB46FF0004100B59CB01DAB00
:104D8C0002900690079104910848094953F8042BA6
:104D9C000591006802A9019300F068F80022029BBB
:104DAC001A701CB05DF804EB03B07047340000209F
:104DBC000802FFFF2DE9F0478E6882469E420C46A2
:104DCC0090461F4638D88A8912F4906F32D02568E5
:104DDC0009690133A5EB010965694B4405EB4505F0
:104DEC0005EBD5756D109D4238BF1D46530531D569
:104DFC00294600F053FB064650B90C234FF0FF3008
:104E0C00CAF80030A38943F04003A381BDE8F087C2
:104E1C004A46216900F0CEFAA38923F4906343F04B
:104E2C008003A38126614E4426603E466561A5EB56
:104E3C000905A560BE4200D93E463246414620686F
:104E4C0000F0C6FAA36822689B1B32440020A360C2
:104E5C002260DBE72A4600F07BFB06460028E1D106
:104E6C005046216900F0CEFAC7E700002DE9F04F5B
:104E7C0098468B8907461B060D4614469DB00ED5E9
:104E8C000B6963B9402100F009FB2860286120B947
:104E9C000C233B604FF0FF30D1E040236B610023CB
:104EAC00099320238DF8293030234FF00109CDF8D8
:104EBC000C80DFF8A4818DF82A3023469A4613F82B
:104ECC00012B0AB1252AF9D1BAEB040B0BD05B46A6
:104EDC00224629463846FFF76DFF013000F0AA80C4
:104EEC00099A5A4409929AF80030002B00F0A280DB
:104EFC0000234FF0FF32CDE905230AF1010A049398
:104F0C0007938DF853301A935446052214F8011B5D
:104F1C00514800F041FA049AD8B9D00644BF202376
:104F2C008DF85330110744BF2B238DF853309AF86A
:104F3C0000302A2B15D0544600204FF00A0C079A4B
:104F4C00214611F8013B303B092B4ED9B0B10792E9
:104F5C0014E0A0EB080309FA03F31343A2460493ED
:104F6C00D2E7039B191D1B680391002BBBBF5B424F
:104F7C0042F0020207930793B8BF049223782E2BBA
:104F8C000CD163782A2B35D1039B02341A1D1B6874
:104F9C000392002BB8BF4FF0FF330593DFF8C8A086
:104FAC0003225046217800F0F7F940B14023A0EBE2
:104FBC000A0003FA00F0049B01340343049314F831
:104FCC00011B062225488DF8281000F0E5F9002871
:104FDC0038D0234B1BBB039B073323F00703083349
:104FEC000393099B3344099367E70C4601200CFBA0
:104FFC000232A5E700234FF00A0C19460134059341
:10500C00204610F8012B303A092A03D9002BC5D0C1
:10501C000591C3E7044601230CFB0121F0E703AB28
:10502C0000932A4638460F4B04A9AFF30080421C6C
:10503C000646D6D1AB895B063FF52CAF09981DB05F
:10504C00BDE8F08F03AB00932A463846054B04A904
:10505C0000F07CF8EBE700BF545900085E590008DB
:10506C0000000000C14D00085A5900082DE9F04716
:10507C00164699468A680B6907469342B8BF134691
:10508C00336091F843200C46DDF820800AB10133DF
:10509C0033602368990642BF336802333360256856
:1050AC0015F0060506D104F1190AE36832689B1A5B
:1050BC00AB4228DC94F84320131E226818BF01234E
:1050CC0092062DD44946384604F14302C0470130BC
:1050DC0020D02368E56803F00603042B18BF0025D5
:1050EC0032684FF00006A36808BFAD1A226908BFEA
:1050FC0025EAE5759342C4BF9B1AED181A34B542E4
:10510C001AD1002008E00123524649463846C047D0
:10511C00013003D14FF0FF30BDE8F0870135C4E713
:10512C003020E11881F843005A1C94F845102244B1
:10513C00023382F84310C5E701232246494638461C
:10514C00C0470130E6D00136D9E700002DE9FF4712
:10515C000C46277E9146782F80469A460C9904F18E
:10516C00430207D8622F0AD8002F00F0D980582F9D
:10517C0000F0A48004F1420684F842703AE0A7F1F2
:10518C006303152BF6D801A050F823F0F151000859
:10519C000552000881510008815100088151000816
:1051AC008151000805520008815100088151000806
:1051BC008151000881510008135300083552000832
:1051CC00F552000881510008815100083553000840
:1051DC0081510008355200088151000881510008A6
:1051EC00FD5200080B6804F142061A1D1B680A6088
:1051FC0084F842300123A4E0256808682E0600F1EB
:10520C0004030AD505680B60002D03DA2D236D42CB
:10521C0084F843300A235E4819E015F0400F056806
:10522C000B6018BF2DB2EFE70B682568181D0860DE
:10523C00280601D51D6802E06906FBD51D886F2F75
:10524C000CBF08230A235248002184F843106668D7
:10525C00002EA8BF2168A660A4BF21F00401216024
:10526C000DB9002E4DD01646B5FBF3F103FB1157CB
:10527C00C75D06F8017D2F46BB420D46F4D9082BBD
:10528C000BD12368DF0708D5236961689942DEBF1B
:10529C00302306F8013C06F1FF36921B22614B4687
:1052AC0021464046CDF800A003AAFFF7DFFE0130EF
:1052BC004CD14FF0FF3004B0BDE8F087344884F88F
:1052CC0045700E68236856F8045B1F060E6014D5F3
:1052DC00D90744BF43F0200323601DB9236823F092
:1052EC00200323601023AFE7236843F020032360DF
:1052FC007823284884F84530E3E75E0648BFADB212
:10530C00E6E71646BBE70B6826681D1D60690D6055
:10531C0035061B6801D5186002E07106FBD51880B4
:10532C00002316462361BAE70B681A1D0A601E6833
:10533C0000213046626800F02FF808B1801B6060D5
:10534C0063682361002384F84330A8E7324649465A
:10535C0040462369D0470130ABD023689B0713D458
:10536C00E068039B9842B8BF1846A4E70123324675
:10537C0049464046D04701309BD00135E36803993C
:10538C005B1AAB42F2DCEBE7002504F11906F5E7FA
:10539C006559000876590008034610B5C9B2024495
:1053AC009342184601D1002003E0047801338C426B
:1053BC00F6D110BD0A44914200F1FF3300D1704781
:1053CC0010B511F8014B914203F8014FF9D110BD02
:1053DC00884210B501EB020402D98442234607D857
:1053EC00431EA14208D011F8012B03F8012FF8E756
:1053FC00014602448A4200D110BD13F8014D02F857
:10540C00014DF7E738B50546002943D051F8043C67
:10541C000C1F002BB8BFE41800F0D0F81E4A13681C
:10542C00104633B9636014602846BDE8384000F07C
:10543C00CBB8A3420AD921686218934201BF1A68FB
:10544C005B685218226063600460EDE71A465B6883
:10545C000BB1A342FAD911685018A0420BD12068A5
:10546C000144501883421160DED118685B68014416
:10547C0011605360D8E702D90C232B60D4E7206865
:10548C0021188B4201BF19685B68091821606360A1
:10549C005460C9E738BD00BFE4000020F8B5CD1C4E
:1054AC0025F0030508350C2D38BF0C25002D0646BC
:1054BC0001DBA94203D90C2333600020F8BD00F0B6
:1054CC007DF821490A6814469CB9204F3B6823B9E2
:1054DC002146304600F062F838602946304600F02C
:1054EC005DF8431C23D10C233046336000F06CF87C
:1054FC00E3E723685B1B17D40B2B03D923601C44F5
:10550C00256004E06368A2420CBF0B605360304618
:10551C0000F05AF804F10B00231D20F00700C21A0A
:10552C00CCD01B1AA350C9E722466468CCE7C41C34
:10553C0024F00304A042E3D0211A304600F02EF8E8
:10554C000130DDD1CFE700BFE4000020E8000020EF
:10555C00F8B5074614460E4621B91146BDE8F84089
:10556C00FFF79CBF22B9FFF74DFF25462846F8BD33
:10557C0000F030F8A0420FD221463846FFF78EFFDC
:10558C0005460028F2D031462246FFF713FF31467C
:10559C003846FFF737FFE9E73546E7E738B500232C
:1055AC00054D044608462B60FCF7B2FC431C02D1A7
:1055BC002B6803B1236038BD2C020020014800F099
:1055CC0011B800BF34020020014800F00CB800BF35
:1055DC003402002051F8043C181F002BBCBF0B58A0
:1055EC00C018704770477047F8B500BFF8BC08BCCE
:1055FC009E467047F8B500BFF8BC08BC9E46704785
:10560C000A2323232323204558544920444953413A
:10561C00424C45442121202323232323230D0A001C
:10562C000A2323232323204558544920454E414225
:10563C004C45202323232323230D0A003E3E3E3ECC
:10564C003E3E3E3E3E2073656E64696E6720696F18
:10565C0074207061636B6167650D0A00436F6E7334
:10566C00756D696E6720636F756E7465723A20256F
:10567C0064200D0A00000000436F6E73756D696E37
:10568C00672031206372656469740D0A00000000A4
:10569C0031736563207469636B0D0A002323232324
:1056AC002063757272656E74206372656469743AF6
:1056BC002025642C206D6F64653A2025640D0A004A
:1056CC003E3E3E3E3E3E3E3E2072657365745F61DB
:1056DC006C6C5F70696E730D0A0000003E3E3E3EBE
:1056EC003E3E3E3E20534554204F55545055542079
:1056FC003D3E202564200D0A000000007072657389
:10570C0073656420627574746F6E31210D0A00002C
:10571C007072657373656420627574746F6E322178
:10572C000D0A000070726573736564206275747481
:10573C006F6E33210D0A00007072657373656420FF
:10574C00627574746F6E34210D0A0000707265738B
:10575C0073656420627574746F6E35210D0A0000D8
:10576C007072657373656420627574746F6E2063F8
:10577C007265646974207265736574210D0A00008A
:10578C007072657373656420627574746F6E206DCE
:10579C006F6465210D0A00006164646564206372A6
:1057AC0065646974203A202564200D0A000000000D
:1057BC0066726F6E742062746E206973206E6F77E0
:1057CC0020656E61626C650D0A0000006375727273
:1057DC00656E7420637265646974203A20256420B8
:1057EC000D0A0000656570726F6D20726561642032
:1057FC004455524154494F4E203120697320256441
:10580C00200D0A00656570726F6D207265616420F1
:10581C004455524154494F4E20322069732025641F
:10582C00200D0A00656570726F6D207265616420D1
:10583C004455524154494F4E2033206973202564FE
:10584C00200D0A00656570726F6D207265616420B1
:10585C004455524154494F4E2034206973202564DD
:10586C00200D0A00656570726F6D20726561642091
:10587C004455524154494F4E2035206973202564BC
:10588C00200D0A00656570726F6D20726561642071
:10589C00435245444954206973202564200D0A0065
:1058AC000A2D2D2D2D2D2D2D2D2D2D0A7472696760
:1058BC0067657265642066726F6D2020434F494E98
:1058CC005F49545F50696E0A2D2D2D2D2D2D2D2DD8
:1058DC002D2D0D0A000000000A2D2D2D2D2D2D2D06
:1058EC002D2D2D0A74726967676572656420667266
:1058FC006F6D202042414E4B5F49545F50696E0AD8
:10590C002D2D2D2D2D2D2D2D2D2D0D0A00000000B2
:10591C0002030405060708090A0B0C0D0E0F1010E4
:10592C0002030405060708090A0B0C0D0E0F1010D4
:10593C000000000000000000010203040607080933
:10594C000000000001020304232D302B2000686CA2
:10595C004C00656667454647003031323334353686
:10596C0037383941424344454600303132333435BF
:0C597C00363738396162636465660000EC
:0459880031010008E1
:04598C000D01000801
:10599000010A0A0A0A0A0A010A0000000A000000B5
:1059A0007E306D79335B5F707F7B014F370E670010
:1059B000771F4E3D4F4700000024F4001000000008
:1059C000010000003800002000000000000000007E
:1059D00000000000000000000000000000000000C7
:1059E00000000000000000000000000000000000B7
:1059F00000000000000000000000000000000000A7
:105A00000000000000000000000000000000000096
:105A10000000000000000000000000000000000086
:085A200000000000000000007E
:040000050800222DA0
:00000001FF
